:04000000B6EF0CF05B
:08000800046ED8CF05F0E0CF33
:1000100006F00001E9CF0CF0EACF07F0E1CF08F0DD
:10002000E2CF09F0D9CF0AF0DACF0BF0F3CF12F01C
:10003000F4CF13F0FACF14F0F5CF15F0F6CF16F099
:10004000F7CF17F000C00EF001C00FF002C010F0A3
:1000500003C011F0F2AA30EF00F0F2B423EF01F088
:10006000F2A836EF00F0F2B2E4EF00F0F0A83CEFB7
:1000700000F0F0B2B7EF00F09DAA42EF00F09EBA98
:100080008BEF01F00EC000F00FC001F010C002F0C5
:1000900011C003F00CC0E9FF07C0EAFF078E08C0DB
:1000A000E1FF09C0E2FF0AC0D9FF0BC0DAFF12C0AE
:1000B000F3FF13C0F4FF14C0FAFF15C0F5FF16C01C
:1000C000F6FF17C0F7FF045006C0E0FF05C0D8FFD9
:1000D0001000F76AE20FF66E000EF7220900F550E5
:1000E0001200280C01060C416A757374616E646F0E
:1000F000205A0A0050726F66756E646964616420EC
:100100006465206D65636861000042757363616EAC
:10011000646F206365726F205A00204F4B0A000005
:100120000C42757363616E646F206F726967656EF0
:100130000A0042757363616E646F206365726F209D
:10014000580A000042757363616E646F20636572C4
:100150006F20590A00004F4B00004F4B00004F4BDF
:1001600000004F4B00009EA8FED7AD6E1200460E59
:10017000FADF6493010E386EF098F09242EF00F0CF
:10018000EA6A980EE96EEF500EE00F0E016E006AFB
:10019000002EFED7012EFBD78F0E006E002EFED74D
:1001A0000000EF2EF2D71200010E985F0CE3EA6A0E
:1001B000980EE96EEF5007E0020E006E002EFED79B
:1001C00000D0EF2EF9D71200959A8C9A928480B4C1
:1001D0001AD09292899295948C94020E6D5F000EC3
:1001E0006E5B6F5B705B959A8C8A010E986FC8DFAF
:1001F000C80E986FD9DF959A8C9A010E986FC0DF60
:10020000C80E986FD1DF928480A41AD092928992FE
:1002100095948C84020E6D27000E6E236F2370233D
:10022000959A8C8A010E986FABDFC80E986FBCDF71
:10023000959A8C9A010E986FA3DFC80E986FB4DF61
:10024000F29242EF00F0010E395E3952D8A45DD02F
:10025000020E396E4A5207E14B5205E14C5203E15E
:100260004D5201E15E6A4DBE13D04D5207E14C5232
:1002700005E14B5203E14A5000080AE295908C8058
:1002800095968C76010E4A5E000E4B5A4C5A4D5A8A
:100290004DAE0AD095908C9095968C76010E4A269C
:1002A000000E4B224C224D224E5207E14F5205E1E7
:1002B000505203E1515201E15F6A51BE13D05152D5
:1002C00007E1505205E14F5203E14E5000080AE2A7
:1002D00095928C9295988C78010E4E5E000E4F5A36
:1002E000505A515A51BE01D00AD095928C8295989D
:1002F0008C78010E4E26000E4F22502251225E5263
:1003000004E15F5202E1606BF29AD76AE60ED66EA4
:10031000F29442EF00F09EAAFED7AECF21F021501A
:1003200046080BE164A109D0000E64B1010E010F73
:100330006491E8B06481010E376E2150410807E1F5
:10034000000E64B3010E010F6493E8B06483215082
:10035000500807E1000E64B1010E010F6491E8B08E
:10036000648121502A0802E1010E616F21504D087D
:1003700003E1010E626F366A622D12D021504D08E2
:100380000FE0036A3650220FE96E000E0320EA6E7A
:1003900021C0EFFF010E36263650060801E1626BE0
:1003A0002150580803E1010E5E6E346A215059084D
:1003B00003E1010E5F6E356A5E2C14D0215058089F
:1003C00011E0036A3450260FE96E000E0320EA6E36
:1003D00021C0EFFF010E34263450070803E15E6AA6
:1003E0002A0EC1DE5F2C16D02150590813E0036A93
:1003F00035502D0FE96E000E0320EA6E21C0EFFF8D
:10040000010E35263550070805E15F6A010E606F61
:100410002A0EA9DE9E9A42EF00F00C484147412087
:10042000434C49434B20454E0A00454E2043414C26
:10043000494252415220454E20454C0A000050523C
:100440004F4752414D412059204553504552452078
:100450000A00554E204D4F4D454E544F2E000C4333
:100460006F6C6F636172206D656368612025303148
:100470002E33666D6D000A50726573696F6E65206C
:10048000656E74657220706172610A00636F6D65DC
:100490006E7A617220656C20616A757374650A00FA
:1004A0006465206C6120706C6163612E00000C47F4
:1004B0006972652070617261207375626972206F64
:1004C0000A0062616A6172206D656368612E507214
:1004D0006573696F6E650A00656E746572206E756E
:1004E00065766F2070756E746F2E0A00426F746FA0
:1004F0006E20726F6A6F2073616C69722E0A000041
:100500000C506F72206661766F7220636F6C6F7132
:1005100075650A006D65636861206465202530316A
:100520002E32666D6D2079000A70726573696F6E88
:100530006520656E746572004F4B00000C5065724B
:10054000666F7261646F7261204C697374610A0036
:1005500070617261206F70657261722070756C736A
:1005600065202A0A00007061726120636F6D656EFC
:100570007A6172004F4B00000C504552464F524179
:100580004E444F0A00008AB102D08A9801D08A886E
:1005900093988AB302D08A9A01D08A8A939A8AB5AC
:1005A00002D08A9C01D08A8C939C8AB702D08A9E02
:1005B00001D08A8E939E070E006E002EFED700D0CB
:1005C00093968A86070E006E002EFED700D0939673
:1005D0008A96120094948B94EF0E006E002EFED734
:1005E00000D0875303E094948B8402D094948B942E
:1005F000070E006E002EFED700D093968A9688399B
:10060000896F0F0E891789C08AF0BDDF88510F0BE3
:10061000896F8A6FB8DF1200010E206E94948B945C
:1006200093968A96196AF2BE198EF29E230E986FDF
:10063000A7DD19BEF28E756B755102080EE3030E2D
:100640008A6FA1DF196AF2BE198EF29E050E986FAD
:1006500097DD19BEF28E752BEFD7020E8A6F93DFEE
:10066000756B7551030812E3036A755132DD766FBD
:10067000876B886FAFDF196AF2BE198EF29E050E86
:10068000986F7EDD19BEF28E752BEBD7E5EF0CF07F
:100690008451010A07E0030A07E0010A08E0070A9B
:1006A00009E00BD0856B0BD0400E856F08D0140E7F
:1006B000856F05D0540E856F02D0856B00D0010E7A
:1006C000835D852785518009866F876B886F82DF00
:1006D000120082510C0A05E0060A13E0020A18E033
:1006E0001CD0876B010E886F75DF010E206E196AB2
:1006F000F2BE198EF29E020E986F42DD19BEF28E86
:1007000012D0202A010E836F20C084F0C1DF0BD0ED
:10071000876B100E886F5EDF06D0010E876F82C078
:1007200088F058DF00D012000900F5520CE0F6CF37
:1007300075F0F7CF76F0F5CF82F0CBDF75C0F6FF1E
:1007400076C0F7FFF1D71200929289920A0EF66EE8
:10075000010EF76EE9DF948082B017D095948C94E7
:10076000959A8C7A196AF2BE198EF29E010E986FD4
:1007700007DD19BEF28E196AF2BE198EF29EC80EFE
:10078000986F12DD19BEF28EE6D71A0EF66E010EC4
:10079000F76ECADF6C6B6B6B6A6B696BD6EF03F03D
:1007A000200EF66E010EF76EBFDFCED7320EF66E5C
:1007B000010EF76EB9DF440EF66E010EF76EB4DF70
:1007C00096948D9492908990958C83AC03D0958E5D
:1007D00083BE3BD0958C83BC04D095908C9095962D
:1007E0008C76958C83AC0AD0110E836F030E846FC8
:1007F0004FDF560EF66E010EF76E96DF958E83BEB6
:1008000004D095928C8295988C78958E83AE0AD080
:10081000110E836F040E846F3BDF5A0EF66E010ECD
:10082000F76E82DF196AF2BE198EF29E010E986F82
:10083000A7DC19BEF28E196AF2BE198EF29EC80E9E
:10084000986FB2DC19BEF28EBFD7110E836F030E04
:10085000846F1EDF5E0EF66E010EF76E65DF110E01
:10086000836F040E846F14DF620EF66E010EF76E56
:100870005BDF95968C9695988C98959A8C9A456A9C
:10088000446A436A426A496A486A476A466A120089
:10089000B60E006E036A026A016A7D917CAF0CD0CD
:1008A0007D81791F7A1F7B1F7C1F792B05E17A2BB5
:1008B00003E17B2BD8B47C2B79517A117B117C110D
:1008C00002E1006A0FD0D89001BE09D079377A379B
:1008D0007B377C37033602360136002EF4D7019E73
:1008E0007DB1018E12008851D8B4A5D0946F8C517F
:1008F000D8B4A1D0945F05E37F0E9427D8B09BD0E5
:1009000006D0810E945FD8A096D0D8B494D094C06D
:1009100000F0016A026A036A936B89C092F0928FB9
:100920008AC091F08BC090F0190E946F8F51905F38
:100930000DE2010E915F0AE2925F08E2935F06E228
:10094000932B922B912B8F51902728D08E51915F12
:1009500012E2010E925F0FE2935F0DE2932B922B56
:100960008E5191278F51902719E3912B17E1922BEC
:1009700015E1932B13D08D518009925F0EE2010E89
:10098000935F0BE2932B8D51800992278E51912713
:10099000E9E3922BE7E1932BE5D70380942F01D075
:1009A0000BD0D8909037913792379337D890033641
:1009B000023601369537BAD795A106D0D8900132C4
:1009C00002320332953302D0000635E095BF1ED0C7
:1009D000D89090379137923793378F51905F07E2D5
:1009E000010E915F04E2925F02E2935F1AE38E517F
:1009F000915F05E2010E925F02E2935F12E38D5177
:100A00008009925F03E2010E935F0BE3032A09E181
:100A1000022A07E1012A05E1002A0DE00132023233
:100A2000033289C094F08D51941B94AF02D0018E93
:100A300006D0019E04D0006A016A026A036A1200AD
:100A400076C07DF07A517D1B7DAF05D0D894D890CB
:100A500076BFD8802FD076C07DF079C07EF07551FA
:100A60007E5F06E07DAF26D0D850010AD86E22D036
:100A70007AC07EF076517E5F06E07DAF1BD0D85005
:100A8000010AD86E17D07BC07EF077517E5F06E0FA
:100A90007DAF10D0D850010AD86E0CD07CC07EF04B
:100AA00078517E5F06E07DAF05D0D850010AD86E40
:100AB00001D0D8901200800ED8B28D1B926B936B30
:100AC00089C091F08D51911B8851D8B4DCD0906FC2
:100AD000006E8C51D8B4E0D0905FD8B481D03DE3A3
:100AE0008DC096F0968F8EC095F08FC094F0936B6A
:100AF000D8909633953394339333902FF8D791AFA2
:100B000003D09281DDD0929190919289EA6A8B0E06
:100B1000E96EE9D0929991BF0AD090A113D0963393
:100B2000953394339333002AD8B4C5D00BD096BFF5
:100B30000CD0D89093379437953796370006D8B4B1
:100B4000BAD0F5D7928D6BD0929D89C091F089AFC4
:100B500002D0968FA9D0969FA7D08CC090F08CC061
:100B600000F08851905F89C096F0968F8AC095F00A
:100B70008BC094F0936BD890963395339433933322
:100B8000902FF8D791AF03D092839AD092939091FF
:100B9000928BEA6A8F0EE96EA6D0929B91BF0AD023
:100BA00090A113D09633953394339333002AD8B45D
:100BB00082D00BD096BF0CD0D8909337943795370E
:100BC00096370006D8B477D0F5D7928F28D0929F69
:100BD0008DC091F08DAF02D0968F66D0969F64D075
:100BE0008DC096F0968F8EC095F08FC094F091AF27
:100BF00004D0969F928564D09295936B9091EA6A07
:100C00008B0EE96E70D091BF1CD089C091F090A17D
:100C100006D09633953394339333002A4CE093AF48
:100C20000BD0942B09E1952B07E1962B05E1963328
:100C300095339433002A3FE092BD86D792BFC7D741
:100C40001CD0800E961B96AF04D03AD08DC091F088
:100C50000AD089C091F0965306E1955304E194536C
:100C600002E1006A21D096BF08D0D890933794371C
:100C700095379637002EF7D71ED091AF02D0968FBA
:100C800013D0969F11D08CC000F08DC096F08EC00E
:100C900095F08FC094F008D088C000F089C096F01D
:100CA0008AC095F08BC094F096C001F095C002F018
:100CB00094C003F034D0006A016A026A036A2FD03C
:100CC000936B941F951F961F931F932B05E1942BF5
:100CD00003E1952B01E1962B92B115D792B356D72C
:100CE00092B58AD7B3D7EF50942705E3952B03E14C
:100CF000962BD8B49081ED52EF50952703E3962BB5
:100D0000D8B49081ED52EF50EFBE01D0800A962703
:100D1000D8B0908192B9FED692BB3FD774D712005B
:100D20008E0E006E7551005E76C002F077C001F045
:100D3000028E005209E0D890025202E1015204E012
:100D400002320132002EF7D776AF05D0011E021E07
:100D5000012AD8B4022A12007D6B7E6B010E7F6FD0
:100D6000DA6AD96A826B750E816FEA6A790EE96E6A
:100D700082C0E2FF81C0E1FF7FC080F0D890E550E3
:100D8000EE02F3507D23F4507E23802FF7D77DC0F1
:100D9000DEFF7EC07DF07E6BD8B07E2B812BD8B479
:100DA000822B7F2B7F510508E0E1120042503A5C14
:100DB000756F43503B58766F44503C58776F4550A1
:100DC0003D58786F7C6F77C07BF076C07AF075C045
:100DD00079F05EDD03C08BF002C08AF001C089F0BB
:100DE00000C088F08F6B8E6B480E8D6F860E8C6FF7
:100DF0007ADD03C059F002C058F001C057F000C0BE
:100E000056F046503E5C756F47503F58766F4850DD
:100E10004058776F49504158786F7C6F77C07BF0AE
:100E200076C07AF075C079F033DD03C08BF002C074
:100E30008AF001C089F000C088F08F6B8E6B480E7D
:100E40008D6F860E8C6F4FDD03C05DF002C05CF0CD
:100E500001C05BF000C05AF0786B776B766B756BF6
:100E600059C07CF058C07BF057C07AF056C079F07A
:100E7000E7DD01E22BE1D89259C08BF058C08AF02F
:100E800057C089F056C088F08F6B8E6B8D6B7E0ECD
:100E90008C6F11DE03C078F002C077F001C076F0ED
:100EA00000C075F03DDF01C000F002C001F0026A31
:100EB000036A01AE02D00206030603C04DF002C071
:100EC0004CF001C04BF000C04AF02AD0D88259C083
:100ED0008BF058C08AF057C089F056C088F08F6BED
:100EE0008E6B8D6B7E0E8C6FE6DD03C078F002C0DA
:100EF00077F001C076F000C075F012DF01C000F09D
:100F000002C001F0026A036A01AE02D002060306C3
:100F100003C04DF002C04CF001C04BF000C04AF0DD
:100F2000786B776B766B756B5DC07CF05CC07BF02B
:100F30005BC07AF05AC079F083DD01E22BE1D892F0
:100F40005DC08BF05CC08AF05BC089F05AC088F04D
:100F50008F6B8E6B8D6B7E0E8C6FADDD03C078F06A
:100F600002C077F001C076F000C075F0D9DE01C094
:100F700000F002C001F0026A036A01AE02D002066C
:100F8000030603C051F002C050F001C04FF000C092
:100F90004EF02AD0D8825DC08BF05CC08AF05BC076
:100FA00089F05AC088F08F6B8E6B8D6B7E0E8C6FC4
:100FB00082DD03C078F002C077F001C076F000C097
:100FC00075F0AEDE01C000F002C001F0026A036AF3
:100FD00001AE02D00206030603C051F002C050F079
:100FE00001C04FF000C04EF04DC078F04CC077F01B
:100FF0004BC076F04AC075F07C6B7B6B7A6B020E4F
:10100000796FAADE03C04DF002C04CF001C04BF076
:1010100000C04AF051C078F050C077F04FC076F071
:101020004EC075F07C6B7B6B7A6B020E796F94DE31
:1010300003C051F002C050F001C04FF000C04EF0AC
:101040001200F294D76AE60ED66EF28A010E5E6E38
:101050005F6E606F602D01D0FDD751EF08F03D6AE3
:10106000020E3C6E490E3B6EF00E3A6E416A030E64
:10107000406E0D0E3F6E400E3E6E98DE3DC045F058
:101080003CC044F03BC043F03AC042F041C049F09C
:1010900040C048F03FC047F03EC046F0020E396EF7
:1010A000D0D74D0EB3EC00F012008451D8B471D0FB
:1010B000006E8851D8B46DD0002604E3810E00265E
:1010C00068E204D07F0E005E64E363E085C08CF0CC
:1010D00089518C1B858F898F87518B03F4CF8EF0BC
:1010E00086518A03F4CF03F0F3CF8DF08B03F350D6
:1010F0008E27F4508D23000E032287518A03F3506C
:101100008E27F4508D23000E026A0322022285519D
:101110008B03F3508D27F4500322000E02228551D9
:101120008A03F3500326F4500222000E016A0122C2
:1011300087518903F3508D27F4500322000E0222B9
:10114000012286518903F3500326F4500222000E37
:10115000012285518903F3500226F4500122002A0E
:1011600001BE05D08D370336023601360006000E6B
:101170008DAF0AD0032A02220122015005E102505C
:1011800003E1035001E1002A8CBF018E8CAF019E68
:1011900004D0006A016A026A036A12008E0E006EB1
:1011A00089C001F088C002F0036A015209E102C05F
:1011B00001F0026A080E005E015202E1006A08D0E6
:1011C000D89001BE04D0023601360006F9D7019E40
:1011D00012007C6B7B6B7A6B7F0E796F806B7F6B01
:1011E0007E6B7D6B818181938195836B75517611C7
:1011F00005E1006A016A026A036A06D18351832B02
:10120000036A7525E96E76510320EA6EEFCF82F00E
:101210008253D8B4BED081A10FD0825120080CE0F7
:10122000819182512B0803E18193A8D005D082518E
:101230002D0802E18183A2D081B107D082512E080E
:1012400004E181B502D0818599D081B194D08251D9
:101250002F08D8B090D082513908D8A08CD0300E49
:10126000825F81A551D07CC087F07BC086F07AC0B8
:1012700085F079C084F08B6B8A6B200E896F820EAB
:10128000886F13DF03C07CF002C07BF001C07AF0EE
:1012900000C079F0896B82C088F080DF00C084F0E4
:1012A00001C085F002C086F003C087F003C08BF058
:1012B00002C08AF001C089F000C088F07CC08FF0C5
:1012C0007BC08EF07AC08DF079C08CF073EC04F0A6
:1012D000D89280C08BF07FC08AF07EC089F07DC03C
:1012E00088F003C08FF002C08EF001C08DF000C006
:1012F0008CF05BEC05F003C080F002C07FF001C011
:101300007EF000C07DF036D0876B866B200E856F37
:10131000820E846F80C08BF07FC08AF07EC089F01F
:101320007DC088F0C2DE00C084F001C085F002C03C
:1013300086F003C087F0896B82C088F02FDFD892D7
:1013400087C08BF086C08AF085C089F084C088F0A1
:1013500003C08FF002C08EF001C08DF000C08CF091
:101360005BEC05F003C080F002C07FF001C07EF0AE
:1013700000C07DF003D081B101D00BD08351832B0D
:10138000036A7525E96E76510320EA6EEFCF82F08D
:101390003FD781A317D0876B866B800E856F7F0E3A
:1013A000846F80C08BF07FC08AF07EC089F07DC0E2
:1013B00088F07BDE03C080F002C07FF001C07EF0C9
:1013C00000C07DF07751781117E083530CE083075C
:1013D00077C0E9FF78C0EAFF83517525EF6E000EF4
:1013E0007621EC6E09D077C0E9FF78C0EAFF76C0BD
:1013F000ECFFED5275C0EFFF7DC000F07EC001F044
:101400007FC002F080C003F012006253FEE0622D44
:1014100001D0FDD7766B220E756F786B776BD9DEB6
:1014200003C055F002C054F001C053F000C052F0A8
:1014300012000900F6CF76F0F7CF77F0F5CF82F003
:1014400069EC03F076C0F6FF77C0F7FF752FF1D790
:1014500012008251B608826F036A83C086F0838FC0
:10146000D890833384338533033202320132003221
:10147000822FF6D786AF0BD0001E011E021E031E60
:10148000002AD8B4012AD8B4022AD8B4032A1200F8
:10149000D8B203D0EA6A8A0EE96E006A016A026A6B
:1014A000036A8A6B8B6B8C6B8D6B895188118711EA
:1014B00086112CE0200E8E6FD890823783378437C8
:1014C00085378A378B378C378D3789518D5D08E1A9
:1014D00088518C5D05E187518B5D02E186518A5D03
:1014E0000FE386518A5F8751D8A0873D8B5F885173
:1014F000D8A0883D8C5F8951D8A0893D8D5FD88068
:1015000000360136023603368E2FD6D78AC0EFFF5B
:101510008BC0ECFF8CC0ECFF8DC0ECFF1200E950DB
:101520007A6F79517C6F19E078C087F077C086F0C8
:1015300076C085F075C084F08B6B8A6B200E896F46
:10154000820E886FB2DD03C078F002C077F001C070
:1015500076F000C075F07C2FE7D778C085F077C0B3
:1015600084F076C083F075C082F073DF03C078F03A
:1015700002C077F001C076F000C075F078AF0DD0F2
:101580007A077A8B751F761F771F781F752BD8B453
:10159000762BD8B4772BD8B4782B3B0E816F9A0E6C
:1015A000806FCA0E7F6F7E6B0A0E7C6F7951D8B444
:1015B0007A2BD882EA6A750EE96E78C085F077C01A
:1015C00084F076C083F075C082F081C089F080C05D
:1015D00088F07FC087F07EC086F05ADF015000524D
:1015E0000FE179297C5D0CE07A510CE00F0B7C5DFA
:1015F00001E03BE27ABF39D07ABD04D0200E30D072
:10160000200E7A177AAB0DD07A9B7951D8A47A073D
:1016100000507A6F2D0E826F69EC03F07A51006EE4
:101620007A6B79517C5D0BE100507A6F2E0E826FE0
:1016300069EC03F07A51006E200E7A17000E300E1E
:101640007AAB0ED07A9B7951D8A47A0700507A6F82
:101650002D0E826F69EC03F07A51006E7A6B300EBA
:10166000002600C082F069EC03F0D89281C085F0BA
:1016700080C084F07FC083F07EC082F0896B886B6D
:10168000876B0A0E866F04DF03C081F002C080F012
:1016900001C07FF000C07EF07C2F8BD71200E60ED9
:1016A000F66E000EF76E94EC03F0F40EF66E000E7C
:1016B000F76E94EC03F09292899296948D949290A6
:1016C0008990959A8C9A948282A235D095948C8434
:1016D000959A8C8A196AF2BE198EF29E010E986F45
:1016E000C0EC00F019BEF28E196AF2BE198EF29E9D
:1016F000C80E986FD4EC00F019BEF28E959A8C9AB1
:10170000196AF2BE198EF29E010E986FC0EC00F0BD
:1017100019BEF28E196AF2BE198EF29EC80E986F2B
:10172000D4EC00F019BEF28E010E7127000E722368
:1017300073237423C8D7C80E715F000E725B735B8E
:10174000745B12009292899269516D5D656F6A5166
:101750006E59666F6B516F59676F6C517059686F36
:1017600068BF3ED0685307E1675305E1665303E164
:101770006551000835E295948C84959A8C8A196A93
:10178000F2BE198EF29E010E986FC0EC00F019BEE9
:10179000F28E196AF2BE198EF29EC80E986FD4ECC2
:1017A00000F019BEF28E959A8C9A196AF2BE198EC3
:1017B000F29E010E986FC0EC00F019BEF28E196A0D
:1017C000F2BE198EF29EC80E986FD4EC00F019BECE
:1017D000F28E010E655F000E665B675B685BC0D7CB
:1017E00068BF01D035D095948C94959A8C8A196AEB
:1017F000F2BE198EF29E010E986FC0EC00F019BE79
:10180000F28E196AF2BE198EF29EC80E986FD4EC51
:1018100000F019BEF28E959A8C9A196AF2BE198E52
:10182000F29E010E986FC0EC00F019BEF28E196A9C
:10183000F2BE198EF29EC80E986FD4EC00F019BE5D
:10184000F28E010E6527000E662367236823C8D732
:1018500070C06CF06FC06BF06EC06AF06DC069F064
:1018600012000900F5520DE0F6CF75F0F7CF76F0D3
:10187000F5509EA8FED7AD6E75C0F6FF76C0F7FF97
:10188000F0D7120096908D8064A1FED764A16AD033
:101890006053FEE0602D65D0766B260E756F786B19
:1018A000776B97DC03C085F002C084F001C083F041
:1018B00000C082F0CEDD03C03DF002C03CF001C0AC
:1018C0003BF000C03AF0766B2D0E756F786B776B3E
:1018D00080DC03C085F002C084F001C083F000C04A
:1018E00082F0B7DD03C041F002C040F001C03FF01C
:1018F00000C03EF0D6EC06F03DC045F03CC044F0E0
:101900003BC043F03AC042F041C049F040C048F00B
:101910003FC047F03EC046F0F294D76AE60ED66E5E
:10192000F28A010E5E6E5F6E602D01D0FDD72C0E27
:1019300071256D6F010E72216E6F000E73216F6F36
:10194000000E7421706FFEDE74C070F073C06FF013
:1019500072C06EF071C06DF0F5DE2A0EB3EC00F0CF
:1019600099D794D796908D90B7EF0EF0F86AD09EE5
:10197000078EEA6AE96AB886E10EAF6E040EB06EB1
:10198000A60EAC6E900EAB6EC150C00B0F09C16EAF
:10199000070EB46E1A6A1B6A96948D8492908980A1
:1019A00092928982196AF2BE198EF29E640E986F25
:1019B000C0EC00F019BEF28E9D8AC70ED56EF0887D
:1019C000F188C00EF2120CEF03F0376A626B616BA4
:1019D000456A446A436A426A496A486A476A466A8B
:1019E0006C6B6B6B6A6B696B649364914D6A4C6A48
:1019F0004B6A4A6A686B676B666B656B516A506AC3
:101A00004F6A4E6A746B736B726B716B3D6A3C6AA2
:101A10003B6A3A6A416A406A3F6A3E6A706B6F6B22
:101A20006E6B6D6B636B606B5E6A5F6A556A546A5E
:101A3000536A526A596A586A576A566A5D6A5C6A9A
:101A40005B6A5A6A386A346A356A366A1A0EF66E02
:101A5000040EF76E94EC03F02A0EF66E040EF76E89
:101A600094EC03F03E0EF66E040EF76E94EC03F069
:101A7000520EF66E040EF76E94EC03F06153FEE026
:101A8000616BD0EC03F02FEC08F0BFDC5E0EF66E5D
:101A9000040EF76E0F0E756FCCDCC90EE96E55C0E3
:101AA00078F054C077F053C076F052C075F0030E52
:101AB000796F35DD6D0E826F69EC03F06D0E826F0C
:101AC00069EC03F0760EF66E040EF76E94EC03F0FC
:101AD0008C0EF66E040EF76E94EC03F0A00EF66E0C
:101AE000040EF76E94EC03F0968284B201D0FCD71A
:101AF000196AF2BE198EF29E0A0E986FC0EC00F0C1
:101B000019BEF28E968284A201D0FCD7C8DD74C0C3
:101B100070F073C06FF072C06EF071C06DF012DEC5
:101B2000410EB3EC00F064B302D03852FCE064A381
:101B30009CD06053FEE0602D97D0766B260E756FBB
:101B4000786B776BE9EC08F003C085F002C084F095
:101B500001C083F000C082F07CDC03C03DF002C015
:101B60003CF001C03BF000C03AF0766B2D0E756F73
:101B7000786B776BE9EC08F003C085F002C084F065
:101B800001C083F000C082F064DC03C041F002C0F9
:101B900040F001C03FF000C03EF0D6EC06F03DC082
:101BA00045F03CC044F03BC043F03AC042F041C075
:101BB00049F040C048F03FC047F03EC046F0F294C4
:101BC000D76AE60ED66EF28A010E5E6E5F6E602DEB
:101BD00001D0FDD7AE0EF66E040EF76E94EC03F056
:101BE000C20EF66E040EF76E94EC03F0D80EF66E8D
:101BF000040EF76E94EC03F0EC0EF66E040EF76E26
:101C000094EC03F0F288F18C968284B203D03852BF
:101C100001E1FAD7196AF2BE198EF29E0A0E986F88
:101C2000C0EC00F019BEF28E968284A203D0385226
:101C300001E1FAD7968284B216D0385214E170C00E
:101C40006CF06FC06BF06EC06AF06DC069F074C06C
:101C500070F073C06FF072C06EF071C06DF072DD25
:101C6000410EB3EC00F067D762D7F2983752D8A490
:101C700080D0D0EC03F038524FE12FEC08F005ECA7
:101C80000AF0000EF66E050EF76E94EC03F0140EDB
:101C9000F66E050EF76E090E756F19EC0AF0C90E97
:101CA000E96E55C078F054C077F053C076F052C05A
:101CB00075F0020E796F33DC230EF66E050EF76EAB
:101CC000040E756F19EC0AF0280EF66E050EF76E0D
:101CD00094EC03F0968284B201D0FCD7196AF2BE6C
:101CE000198EF29E0A0E986FC0EC00F019BEF28EAB
:101CF000968284A201D0FCD7D2DCD0EC03F0380E5F
:101D0000F66E050EF76EADDD0D0E9EA8FED7AD6E1C
:101D10000A0E9EA8FED7AD6E020E396E3C0EF66E10
:101D2000050EF76E94EC03F0500EF66E050EF76E8E
:101D300094EC03F0660EF66E050EF76E94EC03F06D
:101D4000740EF66E050EF76E8CDD0D0E9EA8FED796
:101D5000AD6E0A0E9EA8FED7AD6E6153FEE0780E02
:101D6000F66E050EF76E94EC03F0616B8BD5386A56
:061D70007DD72BD6030015
:020000040030CA
:0E00000024CE3E1E0087A1000FC00FE00F406F
:00000001FF
;PIC18F4550
;CRC=2D27  CREATED="19-sep-18 11:37"
