:04000000AFEF0CF062
:08000800046ED8CF05F0E0CF33
:1000100006F00001E9CF0CF0EACF07F0E1CF08F0DD
:10002000E2CF09F0D9CF0AF0DACF0BF0F3CF12F01C
:10003000F4CF13F0FACF14F000C00EF001C00FF0AF
:1000400002C010F003C011F0F2AA2AEF00F0F2B4DF
:100050001CEF01F0F2A830EF00F0F2B2DDEF00F09B
:10006000F0A836EF00F0F0B2B0EF00F09DAA3CEF40
:1000700000F09EBA83EF01F00EC000F00FC001F057
:1000800010C002F011C003F00CC0E9FF07C0EAFF86
:10009000078E08C0E1FF09C0E2FF0AC0D9FF0BC00C
:1000A000DAFF12C0F3FF13C0F4FF14C0FAFF0450CC
:1000B00006C0E0FF05C0D8FF1000F2CF0DF0F29EA1
:1000C000F76AD40FF66E000EF7220900F5500DBE48
:1000D000F28E1200280C01060C416A757374616E71
:1000E000646F205A0A0050726F66756E64696461AD
:1000F00064206465206D6563686100004275736308
:10010000616E646F206365726F205A00204F4B0A46
:1001100000000C42757363616E646F206F726967D3
:10012000656E0A0042757363616E646F2063657269
:100130006F20580A000042757363616E646F20631C
:1001400065726F20590A00004F4B00004F4B0000B2
:100150004F4B00004F4B00009EA8FED7AD6E120023
:10016000460EFADF6293010E366EF098F0923CEF85
:1001700000F0EA6A960EE96EEF500EE00F0E016E87
:10018000006A002EFED7012EFBD78F0E006E002EC8
:10019000FED70000EF2EF2D71200010E965F0CE39F
:1001A000EA6A960EE96EEF5007E0020E006E002E2E
:1001B000FED700D0EF2EF9D71200959A8C9A928430
:1001C00080B41AD09292899295948C94020E6B5FAF
:1001D000000E6C5B6D5B6E5B959A8C8A010E966F60
:1001E000C8DFC80E966FD9DF959A8C9A010E966F6C
:1001F000C0DFC80E966FD1DF928480A41AD092928D
:10020000899295948C84020E6B27000E6C236D23CB
:100210006E23959A8C8A010E966FABDFC80E966F8F
:10022000BCDF959A8C9A010E966FA3DFC80E966F6D
:10023000B4DFF2923CEF00F0010E375E3752D8A4E3
:100240005CD0020E376E485207E1495205E14A522E
:1002500003E14B5201E15C6A4BBE13D04B5207E104
:100260004A5205E1495203E1485000080AE29590DC
:100270008C8095968C76010E485E000E495A4A5A3B
:100280004B5A4BAE0AD095908C9095968C76010E79
:100290004826000E49224A224B224C5207E14D5279
:1002A00005E14E5203E14F5201E15D6A4FBE13D0AA
:1002B0004F5207E14E5205E14D5203E14C50000808
:1002C0000AE295928C9295988C78010E4C5E000E05
:1002D0004D5A4E5A4F5A4FAE0AD095928C829598ED
:1002E0008C78010E4C26000E4D224E224F225C527D
:1002F00004E15D5202E15E6AF29AD76AE60ED66EBA
:10030000F2943CEF00F09EAAFED7AECF1EF01E5036
:1003100046080BE162A109D0000E62B1010E010F87
:100320006291E8B06281010E356E1E50410807E10E
:10033000000E62B3010E010F6293E8B062831E509B
:10034000500807E1000E62B1010E010F6291E8B0A2
:1003500062811E502A0802E1010E5F6E1E504D0898
:1003600003E1010E606F346A602D12D01E504D08FB
:100370000FE0036A34501F0FE96E000E0320EA6E8F
:100380001EC0EFFF010E34263450060801E1606BF9
:100390001E50580803E1010E5C6E326A1E50590867
:1003A00003E1010E5D6E336A5C2C14D01E505808B8
:1003B00011E0036A3250240FE96E000E0320EA6E4A
:1003C0001EC0EFFF010E32263250070803E15C6ABF
:1003D0002A0EC2DE5D2C16D01E50590813E0036AA7
:1003E00033502B0FE96E000E0320EA6E1EC0EFFFA4
:1003F000010E33263350070805E15D6A010E5E6E7B
:100400002A0EAADE9E9A3CEF00F00C48414741209C
:10041000434C49434B20454E0A00454E2043414C36
:10042000494252415220454E20454C0A000050524C
:100430004F4752414D412059204553504552452088
:100440000A00554E204D4F4D454E544F2E000C5036
:100450006F6E6572206D65636861202530312E33C3
:10046000666D6D000A50726573696F6E6520656E0A
:1004700074657220706172610A00636F6D656E7AD7
:10048000617220656C20616A757374650A00646529
:10049000206C6120706C6163612E00000C476972F2
:1004A000652070617261207375626972206F0A0045
:1004B00062616A6172206D656368612E5072657356
:1004C000696F6E650A00656E746572206E7565767B
:1004D0006F2070756E746F2E0A00426F746F6E20FD
:1004E000726F6A6F2073616C69722E0A00000C5083
:1004F0006F72206661766F7220636F6C6F717565C5
:100500000A006D65636861206465202530312E32F4
:10051000666D6D2079000A70726573696F6E652073
:10052000656E746572004F4B00000C506572666F0B
:100530007261646F7261204C697374610A0070614A
:100540007261206F70657261722070756C736520C6
:100550002A0A00007061726120636F6D656E7A61B6
:1005600072004F4B00000C504552464F52414E44D2
:100570004F0A000088B102D08A9801D08A889398E7
:1005800088B302D08A9A01D08A8A939A88B502D019
:100590008A9C01D08A8C939C88B702D08A9E01D015
:1005A0008A8E939E070E006E002EFED700D0939683
:1005B0008A86070E006E002EFED700D093968A968C
:1005C000120094948B94EF0E006E002EFED700D094
:1005D000855303E094948B8402D094948B94070EFB
:1005E000006E002EFED700D093968A968639876FCC
:1005F0000F0E871787C088F0BDDF86510F0B876FFE
:10060000886FB8DF1200010E1D6E94948B94939640
:100610008A96166AF2BE168EF29E230E966FA9DD9A
:1006200016BEF28E736B735102080EE3030E886FD1
:10063000A1DF166AF2BE168EF29E050E966F99DD48
:1006400016BEF28E732BEFD7020E886F93DF736B9B
:100650007351030817E3036A7351F2CF74F0F29EEB
:100660002CDD74BFF28E746F856B866FAADF166AFD
:10067000F2BE168EF29E050E966F7BDD16BEF28ED2
:10068000732BE6D7DCEF0CF08251010A07E0030A76
:1006900007E0010A08E0070A09E00BD0836B0AD0E3
:1006A000400E836F07D0140E836F04D0540E836FF7
:1006B00001D0836B010E815D832783518009846F94
:1006C000856B866F7EDF120080510C0A05E0060AFA
:1006D00013E0020A18E01CD0856B010E866F71DFF3
:1006E000010E1D6E166AF2BE168EF29E020E966FF7
:1006F00040DD16BEF28E11D01D2A010E816F1DC085
:1007000082F0C2DF0AD0856B100E866F5ADF05D0EB
:10071000010E856F80C086F054DF12000900F5528B
:100720000CE0F6CF73F0F7CF74F0F5CF80F0CCDFAC
:1007300073C0F6FF74C0F7FFF1D71200929289924E
:10074000FC0EF66E000EF76EE9DF948082B017D0D3
:1007500095948C94959A8C7A166AF2BE168EF29EB7
:10076000010E966F06DD16BEF28E166AF2BE168E6A
:10077000F29EC80E966F11DD16BEF28EE6D70C0EF5
:10078000F66E010EF76ECADF6A6B696B686B676B9A
:10079000D0EF03F0120EF66E010EF76EBFDFCED76C
:1007A000240EF66E010EF76EB9DF360EF66E010EF0
:1007B000F76EB4DF96948D9492908990958C83AC6B
:1007C00003D0958E83BE3BD0958C83BC04D095908E
:1007D0008C9095968C76958C83AC0AD0110E816F97
:1007E000030E826F51DF480EF66E010EF76E96DF34
:1007F000958E83BE04D095928C8295988C78958E38
:1008000083AE0AD0110E816F040E826F3DDF4C0E55
:10081000F66E010EF76E82DF166AF2BE168EF29E3B
:10082000010E966FA6DC16BEF28E166AF2BE168E0A
:10083000F29EC80E966FB1DC16BEF28EBFD7110EB7
:10084000816F030E826F20DF500EF66E010EF76E81
:1008500065DF110E816F040E826F16DF540EF66E87
:10086000010EF76E5BDF95968C9695988C98959A0D
:100870008C9A436A426A416A406A476A466A456A94
:10088000446A1200B60E006E036A026A016A7B9126
:100890007AAF0CD07B81771F781F791F7A1F772B57
:1008A00005E1782B03E1792BD8B47A2B77517811B5
:1008B00079117A1102E1006A0FD0D89001BE09D0F7
:1008C0007737783779377A37033602360136002E94
:1008D000F4D7019E7BB1018E12008651D8B4A5D009
:1008E000926F8A51D8B4A1D0925F05E37F0E922710
:1008F000D8B09BD006D0810E925FD8A096D0D8B445
:1009000094D092C000F0016A026A036A916B87C0BA
:1009100090F0908F88C08FF089C08EF0190E926F82
:100920008D518E5F0DE2010E8F5F0AE2905F08E24B
:10093000915F06E2912B902B8F2B8D518E2728D023
:100940008C518F5F12E2010E905F0FE2915F0DE21A
:10095000912B902B8C518F278D518E2719E38F2B44
:1009600017E1902B15E1912B13D08B518009905FEB
:100970000EE2010E915F0BE2912B8B5180099027C3
:100980008C518F27E9E3902BE7E1912BE5D703808A
:10099000922F01D00BD0D8908E378F379037913768
:1009A000D8900336023601369337BAD793A106D0D2
:1009B000D890013202320332933302D0000635E080
:1009C00093BF1ED0D8908E378F37903791378D5187
:1009D0008E5F07E2010E8F5F04E2905F02E2915F9B
:1009E0001AE38C518F5F05E2010E905F02E2915F86
:1009F00012E38B518009905F03E2010E915F0BE3DC
:100A0000032A09E1022A07E1012A05E1002A0DE093
:100A100001320232033287C092F08B51921B92AFA7
:100A200002D0018E06D0019E04D0006A016A026ADB
:100A3000036A120074C07BF078517B1B7BAF05D03A
:100A4000D894D89074BFD8802FD074C07BF077C072
:100A50007CF073517C5F06E07BAF26D0D850010A52
:100A6000D86E22D078C07CF074517C5F06E07BAFFA
:100A70001BD0D850010AD86E17D079C07CF07551C0
:100A80007C5F06E07BAF10D0D850010AD86E0CD046
:100A90007AC07CF076517C5F06E07BAF05D0D85001
:100AA000010AD86E01D0D8901200800ED8B28B1BEC
:100AB000906B916B87C08FF08B518F1B8651D8B490
:100AC000DCD08E6F006E8A51D8B4E0D08E5FD8B47F
:100AD00081D03DE38BC094F0948F8CC093F08DC097
:100AE00092F0916BD89094339333923391338E2F4D
:100AF000F8D78FAF03D09081DDD090918E919089FF
:100B0000EA6A890EE96EE9D090998FBF0AD08EA16A
:100B100013D09433933392339133002AD8B4C5D091
:100B20000BD094BF0CD0D89091379237933794372D
:100B30000006D8B4BAD0F5D7908D6BD0909D87C001
:100B40008FF087AF02D0948FA9D0949FA7D08AC08E
:100B50008EF08AC000F086518E5F87C094F0948F2B
:100B600088C093F089C092F0916BD89094339333FE
:100B7000923391338E2FF8D78FAF03D090839AD0D2
:100B800090938E91908BEA6A8D0EE96EA6D0909B21
:100B90008FBF0AD08EA113D0943393339233913305
:100BA000002AD8B482D00BD094BF0CD0D890913703
:100BB0009237933794370006D8B477D0F5D7908F13
:100BC00028D0909F8BC08FF08BAF02D0948F66D0CF
:100BD000949F64D08BC094F0948F8CC093F08DC0A0
:100BE00092F08FAF04D0949F908564D09095916BD4
:100BF0008E91EA6A890EE96E70D08FBF1CD087C0D3
:100C00008FF08EA106D09433933392339133002A20
:100C10004CE091AF0BD0922B09E1932B07E1942B81
:100C200005E1943393339233002A3FE090BD86D799
:100C300090BFC7D71CD0800E941B94AF04D03AD07D
:100C40008BC08FF00AD087C08FF0945306E1935386
:100C500004E1925302E1006A21D094BF08D0D890F9
:100C60009137923793379437002EF7D71ED08FAF36
:100C700002D0948F13D0949F11D08AC000F08BC003
:100C800094F08CC093F08DC092F008D086C000F034
:100C900087C094F088C093F089C092F094C001F0AE
:100CA00093C002F092C003F034D0006A016A026A75
:100CB000036A2FD0916B921F931F941F911F912B4A
:100CC00005E1922B03E1932B01E1942B90B115D711
:100CD00090B356D790B58AD7B3D7EF50922705E394
:100CE000932B03E1942BD8B48E81ED52EF509327D0
:100CF00003E3942BD8B48E81ED52EF50EFBE01D0B8
:100D0000800A9427D8B08E8190B9FED690BB3FD789
:100D100074D712008E0E006E7351005E74C002F024
:100D200075C001F0028E005209E0D890025202E133
:100D3000015204E002320132002EF7D774AF05D021
:100D4000011E021E012AD8B4022A12007B6B7C6BA2
:100D5000010E7D6FDA6AD96A806B730E7F6FEA6A63
:100D6000770EE96E80C0E2FF7FC0E1FF7DC07EF0BC
:100D7000D890E550EE02F3507B23F4507C237E2F75
:100D8000F7D77BC0DEFF7CC07BF07C6BD8B07C2BC0
:100D90007F2BD8B4802B7D2B7D510508E0E112001C
:100DA0004050385C736F41503958746F42503A5814
:100DB000756F43503B58766F7A6F75C079F074C089
:100DC00078F073C077F05EDD03C089F002C088F070
:100DD00001C087F000C086F08D6B8C6B480E8B6F66
:100DE000860E8A6F7ADD03C057F002C056F001C04C
:100DF00055F000C054F044503C5C736F45503D5872
:100E0000746F46503E58756F47503F58766F7A6FF3
:100E100075C079F074C078F073C077F033DD03C02B
:100E200089F002C088F001C087F000C086F08D6BA9
:100E30008C6B480E8B6F860E8A6F4FDD03C05BF0A4
:100E400002C05AF001C059F000C058F0766B756BC3
:100E5000746B736B57C07AF056C079F055C078F058
:100E600054C077F0E7DD01E22BE1D89257C089F05A
:100E700056C088F055C087F054C086F08D6B8C6BDF
:100E80008B6B7E0E8A6F11DE03C076F002C075F0A8
:100E900001C074F000C073F03DDF01C000F002C07B
:100EA00001F0026A036A01AE02D00206030603C023
:100EB0004BF002C04AF001C049F000C048F02AD00F
:100EC000D88257C089F056C088F055C087F054C00A
:100ED00086F08D6B8C6B8B6B7E0E8A6FE6DD03C0AC
:100EE00076F002C075F001C074F000C073F012DF3C
:100EF00001C000F002C001F0026A036A01AE02D034
:100F00000206030603C04BF002C04AF001C049F0DC
:100F100000C048F0766B756B746B736B5BC07AF0D6
:100F20005AC079F059C078F058C077F083DD01E2FB
:100F30002BE1D8925BC089F05AC088F059C087F085
:100F400058C086F08D6B8C6B8B6B7E0E8A6FADDD1F
:100F500003C076F002C075F001C074F000C073F0F9
:100F6000D9DE01C000F002C001F0026A036A01AEDE
:100F700002D00206030603C04FF002C04EF001C0CB
:100F80004DF000C04CF02AD0D8825BC089F05AC026
:100F900088F059C087F058C086F08D6B8C6B8B6BD6
:100FA0007E0E8A6F82DD03C076F002C075F001C04C
:100FB00074F000C073F0AEDE01C000F002C001F0BA
:100FC000026A036A01AE02D00206030603C04FF0B4
:100FD00002C04EF001C04DF000C04CF04BC076F0A6
:100FE0004AC075F049C074F048C073F07A6B796BF1
:100FF000786B020E776FAADE03C04BF002C04AF096
:1010000001C049F000C048F04FC076F04EC075F006
:101010004DC074F04CC073F07A6B796B786B020E34
:10102000776F94DE03C04FF002C04EF001C04DF068
:1010300000C04CF01200F294D76AE60ED66EF28A27
:10104000010E5C6E5D6E5E6E5E2C01D0FDD74BEFC7
:1010500008F03B6A020E3A6E490E396EF00E386E99
:101060003F6A030E3E6E0D0E3D6E400E3C6E98DEE6
:101070003BC043F03AC042F039C041F038C040F0C4
:101080003FC047F03EC046F03DC045F03CC044F094
:10109000020E376ED0D74D0EACEC00F0120082512C
:1010A000D8B471D0006E8651D8B46DD0002604E358
:1010B000810E002668E204D07F0E005E64E363E0E8
:1010C00083C08AF087518A1B838F878F855189035C
:1010D000F4CF8CF084518803F4CF03F0F3CF8BF07E
:1010E0008903F3508C27F4508B23000E0322855183
:1010F0008803F3508C27F4508B23000E026A0322DE
:10110000022283518903F3508B27F4500322000EEF
:10111000022283518803F3500326F4500222000E6A
:10112000016A012285518703F3508B27F450032273
:10113000000E0222012284518703F3500326F4504B
:101140000222000E012283518703F3500226F4503D
:101150000122002A01BE05D08B3703360236013644
:101160000006000E8BAF0AD0032A02220122015092
:1011700005E1025003E1035001E1002A8ABF018E1C
:101180008AAF019E04D0006A016A026A036A1200F3
:101190008E0E006E87C001F086C002F0036A015215
:1011A00009E102C001F0026A080E005E015202E18C
:1011B000006A08D0D89001BE04D00236013600067D
:1011C000F9D7019E12007A6B796B786B7F0E776F7F
:1011D0007E6B7D6B7C6B7B6B7F817F937F95816B5F
:1011E0007351741105E1006A016A026A036A06D14B
:1011F0008151812B036A7325E96E74510320EA6ED5
:10120000EFCF80F08053D8B4BED07FA10FD08051F3
:1012100020080CE07F9180512B0803E17F93A8D038
:1012200005D080512D0802E17F83A2D07FB107D085
:1012300080512E0804E17FB502D07F8599D07FB11F
:1012400094D080512F08D8B090D080513908D8A0C0
:101250008CD0300E805F7FA551D07AC085F079C0E8
:1012600084F078C083F077C082F0896B886B200EA1
:10127000876F820E866F13DF03C07AF002C079F0A9
:1012800001C078F000C077F0876B80C086F080DF07
:1012900003C085F002C084F001C083F000C082F07A
:1012A00003C089F002C088F001C087F000C086F05A
:1012B0007AC08DF079C08CF078C08BF077C08AF05E
:1012C0006DEC04F0D8927EC089F07DC088F07CC0BF
:1012D00087F07BC086F003C08DF002C08CF001C0A7
:1012E0008BF000C08AF055EC05F003C07EF002C020
:1012F0007DF001C07CF000C07BF036D0856B846B44
:10130000200E836F820E826F7EC089F07DC088F0D0
:101310007CC087F07BC086F0C2DE03C085F002C0CF
:1013200084F001C083F000C082F0876B80C086F03B
:101330002FDFD89285C089F084C088F083C087F001
:1013400082C086F003C08DF002C08CF001C08BF02B
:1013500000C08AF055EC05F003C07EF002C07DF0BD
:1013600001C07CF000C07BF003D07FB101D00BD076
:101370008151812B036A7325E96E74510320EA6E53
:10138000EFCF80F03FD77FA317D0856B846B800EA3
:10139000836F7F0E826F7EC089F07DC088F07CC035
:1013A00087F07BC086F07BDE03C07EF002C07DF05C
:1013B00001C07CF000C07BF07551761117E08153BD
:1013C0000CE0810775C0E9FF76C0EAFF8151732503
:1013D000EF6E000E7421EC6E09D075C0E9FF76C087
:1013E000EAFF74C0ECFFED5273C0EFFF7BC000F06A
:1013F0007CC001F07DC002F07EC003F0120060539B
:10140000FEE0602D01D0FDD7746B1F0E736F766BFD
:10141000756BD9DE03C053F002C052F001C051F029
:1014200000C050F012000900F6CF74F0F7CF75F04D
:10143000F5CF80F064EC03F074C0F6FF75C0F7FFE1
:10144000732FF1D712008051B608806F036A81C0F4
:1014500084F0818FD8908133823383330332023218
:1014600001320032802FF6D784AF0BD0001E011E50
:10147000021E031E002AD8B4012AD8B4022AD8B406
:10148000032A1200D8B203D0EA6A880EE96E006A15
:10149000016A026A036A886B896B8A6B8B6B87515E
:1014A0008611851184112CE0200E8C6FD890803726
:1014B000813782378337883789378A378B37875127
:1014C0008B5D08E186518A5D05E18551895D02E108
:1014D0008451885D0FE38451885F8551D8A0853D94
:1014E000895F8651D8A0863D8A5F8751D8A0873D05
:1014F0008B5FD88000360136023603368C2FD6D764
:1015000088C0EFFF89C0ECFF8AC0ECFF8BC0ECFF06
:101510001200E950786F77517A6F19E076C085F044
:1015200075C084F074C083F073C082F0896B886BDF
:10153000200E876F820E866FB2DD03C076F002C088
:1015400075F001C074F000C073F07A2FE7D776C051
:1015500083F075C082F074C081F073C080F073DFD7
:1015600003C076F002C075F001C074F000C073F0E3
:1015700076AF0DD07807788B731F741F751F761F99
:10158000732BD8B4742BD8B4752BD8B4762B3B0EF0
:101590007F6F9A0E7E6FCA0E7D6F7C6B0A0E7A6F1C
:1015A0007751D8B4782BD882EA6A730EE96E76C088
:1015B00083F075C082F074C081F073C080F07FC08A
:1015C00087F07EC086F07DC085F07CC084F05ADF55
:1015D000015000520FE177297A5D0CE078510CE060
:1015E0000F0B7A5D01E03BE278BF39D078BD04D0C3
:1015F000200E30D0200E781778AB0DD0789B775125
:10160000D8A478070050786F2D0E806F64EC03F03B
:101610007851006E786B77517A5D0BE10050786FEE
:101620002E0E806F64EC03F07851006E200E781758
:10163000000E300E78AB0ED0789B7751D8A4780787
:101640000050786F2D0E806F64EC03F07851006EBF
:10165000786B300E002600C080F064EC03F0D89266
:101660007FC083F07EC082F07DC081F07CC080F0BE
:10167000876B866B856B0A0E846F04DF03C07FF077
:1016800002C07EF001C07DF000C07CF07A2F8BD7C5
:101690001200D80EF66E000EF76E8EEC03F0E60E1A
:1016A000F66E000EF76E8EEC03F09292899296948D
:1016B0008D9492908990959A8C9A948282A235D03A
:1016C00095948C84959A8C8A166AF2BE168EF29E38
:1016D000010E966FB9EC00F016BEF28E166AF2BEDD
:1016E000168EF29EC80E966FCDEC00F016BEF28EEE
:1016F000959A8C9A166AF2BE168EF29E010E966F1D
:10170000B9EC00F016BEF28E166AF2BE168EF29E8C
:10171000C80E966FCDEC00F016BEF28E010E6F274C
:10172000000E702371237223C8D7C80E6F5F000E9E
:10173000705B715B725B12009292899267516B5D74
:10174000636F68516C59646F69516D59656F6A5167
:101750006E59666F66BF3ED0665307E1655305E17B
:10176000645303E16351000835E295948C84959AA3
:101770008C8A166AF2BE168EF29E010E966FB9EC36
:1017800000F016BEF28E166AF2BE168EF29EC80EDB
:10179000966FCDEC00F016BEF28E959A8C9A166A72
:1017A000F2BE168EF29E010E966FB9EC00F016BED8
:1017B000F28E166AF2BE168EF29EC80E966FCDECB1
:1017C00000F016BEF28E010E635F000E645B655B77
:1017D000665BC0D766AF35D095948C94959A8C8A09
:1017E000166AF2BE168EF29E010E966FB9EC00F0EC
:1017F00016BEF28E166AF2BE168EF29EC80E966F56
:10180000CDEC00F016BEF28E959A8C9A166AF2BE56
:10181000168EF29E010E966FB9EC00F016BEF28E97
:10182000166AF2BE168EF29EC80E966FCDEC00F0D0
:1018300016BEF28E010E6327000E64236523662315
:10184000C9D76EC06AF06DC069F06CC068F06BC03B
:1018500067F012000900F5520DE0F6CF73F0F7CFF4
:1018600074F0F5509EA8FED7AD6E73C0F6FF74C03D
:10187000F7FFF0D7120096908D8062A1FED762A18B
:101880006AD05E52FEE05E2C65D0746B240E736FDE
:10189000766B756B98DC03C083F002C082F001C0E8
:1018A00081F000C080F0CFDD03C03BF002C03AF011
:1018B00001C039F000C038F0746B2B0E736F766B7B
:1018C000756B81DC03C083F002C082F001C081F03F
:1018D00000C080F0B8DD03C03FF002C03EF001C0A0
:1018E0003DF000C03CF0D0EC06F03BC043F03AC005
:1018F00042F039C041F038C040F03FC047F03EC030
:1019000046F03DC045F03CC044F0F294D76AE60E84
:10191000D66EF28A010E5C6E5D6E5E2C01D0FDD734
:101920002C0E6F256B6F010E70216C6F000E7121F4
:101930006D6F000E72216E6FFFDE72C06EF071C0AF
:101940006DF070C06CF06FC06BF0F6DE2A0EACEC80
:1019500000F099D794D796908D90AEEF0EF0F86A7C
:10196000D09E078EB886E10EAF6E040EB06EA60E46
:10197000AC6E900EAB6EC150C00B0F09C16E070E5E
:10198000B46E176A186A96948D84929089809292A8
:101990008982166AF2BE168EF29E640E966FB9ECBC
:1019A00000F016BEF28E9D8AC70ED56EF088F188C3
:1019B000C00EF21203EF03F0356A606B5F6A436A90
:1019C000426A416A406A476A466A456A446A6A6B83
:1019D000696B686B676B629362914B6A4A6A496A8A
:1019E000486A666B656B646B636B4F6A4E6A4D6ADF
:1019F0004C6A726B716B706B6F6B3B6A3A6A396AD7
:101A0000386A3F6A3E6A3D6A3C6A6E6B6D6B6C6B0E
:101A10006B6B616B5E6A5C6A5D6A536A526A516A9B
:101A2000506A576A566A556A546A5B6A5A6A596AB2
:101A3000586A366A326A336A346A0A0EF66E040EDF
:101A4000F76E8EEC03F01A0EF66E040EF76E8EEC47
:101A500003F02E0EF66E040EF76E8EEC03F0420EBF
:101A6000F66E040EF76E8EEC03F05F52FEE05F6AD6
:101A7000CAEC03F029EC08F0C2DC4E0EF66E040E40
:101A8000F76E0D0E736FCFDCC90EE96E53C076F0A2
:101A900052C075F051C074F050C073F0030E776FF0
:101AA00038DD6D0E806F64EC03F06D0E806F64ECBA
:101AB00003F0640EF66E040EF76E8EEC03F07A0EF1
:101AC000F66E040EF76E8EEC03F08E0EF66E040EBC
:101AD000F76E8EEC03F0968284B201D0FCD7166AC2
:101AE000F2BE168EF29E0A0E966FB9EC00F016BE8C
:101AF000F28E968284A201D0FCD7CBDD72C06EF04C
:101B000071C06DF070C06CF06FC06BF015DE410EEF
:101B1000ACEC00F062B302D03652FCE062A39CD081
:101B20005E52FEE05E2C97D0746B240E736F766B62
:101B3000756BE3EC08F003C083F002C082F001C0D3
:101B400081F000C080F07FDC03C03BF002C03AF0BF
:101B500001C039F000C038F0746B2B0E736F766BD8
:101B6000756BE3EC08F003C083F002C082F001C0A3
:101B700081F000C080F067DC03C03FF002C03EF09F
:101B800001C03DF000C03CF0D0EC06F03BC043F09B
:101B90003AC042F039C041F038C040F03FC047F091
:101BA0003EC046F03DC045F03CC044F0F294D76AD8
:101BB000E60ED66EF28A010E5C6E5D6E5E2C01D072
:101BC000FDD79C0EF66E040EF76E8EEC03F0B00E91
:101BD000F66E040EF76E8EEC03F0C60EF66E040E73
:101BE000F76E8EEC03F0DA0EF66E040EF76E8EECE6
:101BF00003F0F088F188968284B203D0365201E176
:101C0000FAD7166AF2BE168EF29E0A0E966FB9ECDD
:101C100000F016BEF28E968284A203D0365201E105
:101C2000FAD7968284B216D0365214E16EC06AF0AA
:101C30006DC069F06CC068F06BC067F072C06EF088
:101C400071C06DF070C06CF06FC06BF075DD410E4F
:101C5000ACEC00F067D762D7F0983552D8A480D0AA
:101C6000CAEC03F036524FE129EC08F0FFEC09F022
:101C7000EE0EF66E040EF76E8EEC03F0020EF66EAC
:101C8000050EF76E090E736F13EC0AF0C90EE96EBC
:101C900053C076F052C075F051C074F050C073F06C
:101CA000020E776F36DC110EF66E050EF76E040E1F
:101CB000736F13EC0AF0160EF66E050EF76E8EECCF
:101CC00003F0968284B201D0FCD7166AF2BE168E5B
:101CD000F29E0A0E966FB9EC00F016BEF28E968256
:101CE00084A201D0FCD7D5DCCAEC03F0260EF66E38
:101CF000050EF76EAFDD0D0E9EA8FED7AD6E0A0E77
:101D00009EA8FED7AD6E020E376E2A0EF66E050E39
:101D1000F76E8EEC03F03E0EF66E050EF76E8EEC4F
:101D200003F0540EF66E050EF76E8EEC03F0620EA5
:101D3000F66E050EF76E8EDD0D0E9EA8FED7AD6E0B
:101D40000A0E9EA8FED7AD6E5F52FEE0660EF66EDE
:101D5000050EF76E8EEC03F05F6A8DD5366A7DD77F
:041D60002BD603007B
:020000040030CA
:0E00000024CE3E1E0087A1000FC00FE00F406F
:00000001FF
;PIC18F4550
;CRC=8B1F  CREATED="07-oct.-18 17:09"
