:04000000FBEF0CF016
:08000800046ED8CF05F0E0CF33
:1000100006F00001E9CF0CF0EACF07F0E1CF08F0DD
:10002000E2CF09F0D9CF0AF0DACF0BF0F3CF12F01C
:10003000F4CF13F0FACF14F000C00EF001C00FF0AF
:1000400002C010F003C011F0F2AA2AEF00F0F2B4DF
:1000500008EF01F09DA030EF00F09EB06FEF01F0CF
:10006000F2A836EF00F0F2B2C9EF00F0F0A83CEFD2
:1000700000F0F0B29DEF00F09DAA42EF00F09EBAB2
:100080007BEF01F00EC000F00FC001F010C002F0D5
:1000900011C003F00CC0E9FF07C0EAFF078E08C0DB
:1000A000E1FF09C0E2FF0AC0D9FF0BC0DAFF12C0AE
:1000B000F3FF13C0F4FF14C0FAFF045006C0E0FFC2
:1000C00005C0D8FF1000416A757374616E646F20BB
:1000D0005A0050726F66756E64696461642064656D
:1000E000206D65636861000042757363616E646FC3
:1000F000206365726F205A0042757363616E646F8E
:10010000206365726F205A204F4B0000416A75735F
:1001100074616E646F20656A657320582D59000004
:1001200045737065726520706F72206661766F72BC
:1001300000009EA8FED7AD6E1200460EFADF1E9498
:10014000010E386EF09242EF00F0EA6A9C0EE96E02
:10015000EF500EE00F0E016E006A002EFED7012E4A
:10016000FBD78F0E006E002EFED70000EF2EF2D7C9
:100170001200010E9C5F0CE3EA6A9C0EE96EEF50E0
:1001800007E0020E006E002EFED700D0EF2EF9D74A
:100190001200959A8C9A928480B41AD09292899285
:1001A00095948C94010E6D5F000E6E5B6F5B705BBF
:1001B000959A8C8A010E9C6FC8DFC80E9C6FD9DFA0
:1001C000959A8C9A010E9C6FC0DFC80E9C6FD1DF90
:1001D000928480A41AD09292899295948C84010E74
:1001E0006D27000E6E236F237023959A8C8A010E63
:1001F0009C6FABDFC80E9C6FBCDF959A8C9A010E8A
:100200009C6FA3DFC80E9C6FB4DFF29242EF00F048
:10021000010E395E3952D8A45CD0020E396E4B52B1
:1002200007E14C5205E14D5203E14E5201E15F6A94
:100230004EBE13D04E5207E14D5205E14C5203E140
:100240004B5000080AE295908C9095968C76010EA2
:100250004B5E000E4C5A4D5A4E5A4EAE0AD09590F7
:100260008C8095968C76010E4B26000E4C224D22EA
:100270004E224F5207E1505205E1515203E15252D2
:1002800001E1606B52BE13D0525207E1515205E1B9
:10029000505203E14F5000080AE295928C829598E3
:1002A0008C78010E4F5E000E505A515A525A52AE7F
:1002B0000AD095928C9295988C78010E4F26000E5C
:1002C0005022512252225F5204E1605302E1616BDD
:1002D000F29AD76AE60ED66EF29442EF00F0010E63
:1002E0003A5E3A5203E1929689969D90CF6ACE6A21
:1002F0009E9042EF00F09EAAFED7AECF20F0205095
:1003000046080BE11EA209D0000E1EB2010E010F1D
:100310001E92E8B01E82010E376E2050410807E1A0
:10032000000E1EB4010E010F1E94E8B01E84205072
:10033000500807E1000E1EB2010E010F1E92E8B038
:100340001E822050530802E1010E626F20504D08BA
:1003500003E1010E636F366A632D12D020504D0801
:100360000FE0036A3650210FE96E000E0320EA6E9B
:1003700020C0EFFF010E36263650050801E1636B01
:100380002050580803E1010E5F6E346A205059086E
:1003900003E1010E606F356A5F2C14D020505808BD
:1003A00011E0036A3450260FE96E000E0320EA6E56
:1003B00020C0EFFF010E34263450070803E15F6AC6
:1003C0002A0EB7DE602D16D02050590813E0036ABC
:1003D00035502D0FE96E000E0320EA6E20C0EFFFAE
:1003E000010E35263550070805E1606B010E616F7F
:1003F0002A0E9FDE9E9A42EF00F00C4841474120B2
:10040000434C49434B20454E00000243414C494276
:1004100052415220454E204C410003434F4D505510
:100420005441444F524120592045535045524500B4
:1004300004554E204D4F4D454E544F2E00000C019B
:10044000436F6C6F717565206D6563686120253041
:10045000312E32666D6D00000250726573696F6EE9
:100460006520656E746572207061726100000363BF
:100470006F6D656E7A617220656C20616A75737448
:100480006500046465206C6120706C6163612E00FE
:100490000C01476972652070617261207375626931
:1004A00072206F000262616A6172206D656368612B
:1004B0002E50726573696F6E650003656E746572A8
:1004C000206E7565766F2070756E746F2E00044215
:1004D0006F746F6E20726F6A6F2073616C69722E19
:1004E00000000C01506F72206661766F7220636F9E
:1004F0006C6F71756500026D6563686120646520CD
:100500002530312E32666D6D2079000003707265E2
:1005100073696F6E6520656E746572004F4B0000E5
:100520000C01506572666F7261646F7261204C6974
:10053000737461000270617261206F706572617224
:10054000206861676120636C69636B0003656E20DE
:1005500022436F6D656E7A61722200000C01504576
:1005600052464F52414E444F0000080E016E020E9B
:10057000006E002EFED78A9A939A020E006E002E0D
:10058000FED78C378A98D8B09388D8A09398938A4E
:1005900081AAFED7012EEBD7020E006E002EFED7E9
:1005A0008A9A939A00009388020E006E002EFED75E
:1005B000020E006E002EFED7938A81AAFED7016A32
:1005C000020E006E002EFED781B801808A9A939A9F
:1005D0008A98939812009388020E006E002EFED720
:1005E000938A020E006E002EFED78A989398020E10
:1005F000006E002EFED78A9A939A030E006E002E8C
:10060000FED700D07E0E8C6FB0DF030E006E002E82
:10061000FED700D08BC08CF0A8DF030E006E002E3A
:10062000FED700D093980000938A81AAFED7020ECD
:10063000006E002EFED700D000009388020E006EE0
:10064000002EFED7030E006E002EFED700D0120043
:100650001EA005D08A51040908098A6F01D08A8535
:100660008AC08BF0B8DF040E8A5F8AC08BF0B3DFDC
:1006700012008A6BEDDF100E8A6FEADF166AF2BE97
:10068000168EF29E020E9C6F60DD16BEF28E120078
:10069000166AF2BE168EF29E0A0E9C6F56DD16BECC
:1006A000F28E8A6BD5DF100E8A6FD2DF8A6BD0DFB5
:1006B0008A6BCEDF100E8A6FCBDF300E8A6FC8DFF9
:1006C000300E8A6FC5DF300E8A6FC2DF200E8A6F50
:1006D000BFDF200E8A6FBCDF800E8A6FB9DF8A6BA6
:1006E000B7DFC00E8A6FB4DF8A6BB2DF600E8A6F2D
:1006F000AFDFBFDF2AEF0DF08951010A07E0030ADF
:1007000008E0010A09E0070A0AE00CD0800E1D6E1D
:100710000BD0C00E1D6E08D0940E1D6E05D0D40EE9
:100720001D6E02D0800E1D6E010E885D1D261D50AF
:10073000F00B1F6E1FC08AF08BDF1D500F0B1F6E5A
:100740001F3AF00E1F161FC08AF082DF120086517A
:100750000C0A09E00D0A09E0030A0CE0010A10E0A6
:10076000070A14E019D085DF28D0010E886F896F41
:10077000C3DF23D0010E886F020E896FBDDF1DD04D
:10078000010E886F030E896FB7DF17D0010E886FD7
:10079000040E896FB1DF11D08651F00B876F87810E
:1007A00087C08AF055DF86510F0B876F873BF00EAD
:1007B0008717878187C08AF04BDF12000900F55246
:1007C0000CE0F6CF79F0F7CF7AF0F5CF86F0BFDF07
:1007D00079C0F6FF7AC0F7FFF1D7120092928992A2
:1007E0000C0E866FB4DF010E866FB1DFE80EF66E79
:1007F000000EF76EE3DF948082B017D095948C944E
:10080000959A8C7A166AF2BE168EF29E010E9C6F35
:100810009CDC16BEF28E166AF2BE168EF29EC80ED2
:100820009C6FA7DC16BEF28EE6D70C0E866F8FDFAC
:10083000010E866F8CDFF80EF66E000EF76EBEDFCF
:100840006C6B6B6B6A6B696B12000C0E866F7FDFD3
:10085000010E866F7CDF0C0EF66E010EF76EAEDFBA
:10086000020E866F74DF200EF66E010EF76EA6DFA5
:1008700096948D9492908990958C83AC03D0958EAC
:1008800083BE21D0958C83BC04D095908C809596A6
:100890008C76958E83BE04D095928C9295988C78A8
:1008A000166AF2BE168EF29E010E9C6F4EDC16BECC
:1008B000F28E166AF2BE168EF29EC80E9C6F59DC3E
:1008C00016BEF28ED9D795968C9695988C98959A57
:1008D0008C9A466A456A446A436A4A6A496A486A1F
:1008E000476A1200B60E006E036A026A016A8191BD
:1008F00080AF0CD081817D1F7E1F7F1F801F7D2BCD
:1009000005E17E2B03E17F2BD8B4802B7D517E1136
:100910007F11801102E1006A0FD0D89001BE09D08A
:100920007D377E377F378037033602360136002E1B
:10093000F4D7019E81B1018E12008C51D8B4A5D09C
:10094000986F9051D8B4A1D0985F05E37F0E982797
:10095000D8B09BD006D0810E985FD8A096D0D8B4DE
:1009600094D098C000F0016A026A036A976B8DC048
:1009700096F0968F8EC095F08FC094F0190E986FF8
:100980009351945F0DE2010E955F0AE2965F08E2D3
:10099000975F06E2972B962B952B9351942728D09F
:1009A0009251955F12E2010E965F0FE2975F0DE2A2
:1009B000972B962B925195279351942719E3952BBA
:1009C00017E1962B15E1972B13D091518009965F73
:1009D0000EE2010E975F0BE2972B9151800996274B
:1009E00092519527E9E3962BE7E1972BE5D7038012
:1009F000982F01D00BD0D8909437953796379737EA
:100A0000D8900336023601369937BAD799A106D065
:100A1000D890013202320332993302D0000635E019
:100A200099BF1ED0D8909437953796379737935102
:100A3000945F07E2010E955F04E2965F02E2975F22
:100A40001AE39251955F05E2010E965F02E2975F0D
:100A500012E391518009965F03E2010E975F0BE369
:100A6000032A09E1022A07E1012A05E1002A0DE033
:100A70000132023203328DC098F09151981B98AF29
:100A800002D0018E06D0019E04D0006A016A026A7B
:100A9000036A12007AC081F07E51811B81AF05D0BC
:100AA000D894D8907ABFD8802FD07AC081F07DC0FA
:100AB00082F07951825F06E081AF26D0D850010ADA
:100AC000D86E22D07EC082F07A51825F06E081AF7C
:100AD0001BD0D850010AD86E17D07FC082F07B514E
:100AE000825F06E081AF10D0D850010AD86E0CD0DA
:100AF00080C082F07C51825F06E081AF05D0D85083
:100B0000010AD86E01D0D8901200800ED8B2911B85
:100B1000966B976B8DC095F09151951B8C51D8B405
:100B2000DCD0946F006E9051D8B4E0D0945FD8B40C
:100B300081D03DE391C09AF09A8F92C099F093C012
:100B400098F0976BD8909A33993398339733942FC2
:100B5000F8D795AF03D09681DDD096919491968980
:100B6000EA6A8F0EE96EE9D0969995BF0AD094A1F2
:100B700013D09A33993398339733002AD8B4C5D019
:100B80000BD09ABF0CD0D8909737983799379A37AF
:100B90000006D8B4BAD0F5D7968D6BD0969D8DC08F
:100BA00095F08DAF02D09A8FA9D09A9FA7D090C010
:100BB00094F090C000F08C51945F8DC09AF09A8FA1
:100BC0008EC099F08FC098F0976BD8909A33993374
:100BD00098339733942FF8D795AF03D096839AD054
:100BE00096939491968BEA6A930EE96EA6D0969BA3
:100BF00095BF0AD094A113D09A3399339833973381
:100C0000002AD8B482D00BD09ABF0CD0D890973796
:100C1000983799379A370006D8B477D0F5D7968F9A
:100C200028D0969F91C095F091AF02D09A8F66D050
:100C30009A9F64D091C09AF09A8F92C099F093C015
:100C400098F095AF04D09A9F968564D09695976B4F
:100C50009491EA6A8F0EE96E70D095BF1CD08DC05A
:100C600095F094A106D09A33993398339733002A9C
:100C70004CE097AF0BD0982B09E1992B07E19A2B09
:100C800005E19A3399339833002A3FE096BD86D721
:100C900096BFC7D71CD0800E9A1B9AAF04D03AD00B
:100CA00091C095F00AD08DC095F09A5306E1995302
:100CB00004E1985302E1006A21D09ABF08D0D8908D
:100CC0009737983799379A37002EF7D71ED095AFB8
:100CD00002D09A8F13D09A9F11D090C000F091C08B
:100CE0009AF092C099F093C098F008D08CC000F0B0
:100CF0008DC09AF08EC099F08FC098F09AC001F024
:100D000099C002F098C003F034D0006A016A026A08
:100D1000036A2FD0976B981F991F9A1F971F972BC5
:100D200005E1982B03E1992B01E19A2B96B115D798
:100D300096B356D796B58AD7B3D7EF50982705E321
:100D4000992B03E19A2BD8B49481ED52EF50992757
:100D500003E39A2BD8B49481ED52EF50EFBE01D04B
:100D6000800A9A27D8B0948196B9FED696BB3FD711
:100D700074D712008E0E006E7951005E7AC002F0B8
:100D80007BC001F0028E005209E0D890025202E1CD
:100D9000015204E002320132002EF7D77AAF05D0BB
:100DA000011E021E012AD8B4022A1200816B826B36
:100DB000010E836FDA6AD96A866B790E856FEA6AEB
:100DC0007D0EE96E86C0E2FF85C0E1FF83C084F03E
:100DD000D890E550EE02F3508123F4508223842F03
:100DE000F7D781C0DEFF82C081F0826BD8B0822B42
:100DF000852BD8B4862B832B83510508E0E11200A4
:100E000043503B5C796F44503C587A6F45503D5895
:100E10007B6F46503E587C6F806F7BC07FF07AC0FE
:100E20007EF079C07DF05EDD03C08FF002C08EF0F1
:100E300001C08DF000C08CF0936B926B480E916FE7
:100E4000860E906F7ADD03C05AF002C059F001C0DF
:100E500058F000C057F047503F5C796F48504058F9
:100E60007A6F495041587B6F4A5042587C6F806F6F
:100E70007BC07FF07AC07EF079C07DF033DD03C0A7
:100E80008FF002C08EF001C08DF000C08CF0936B2B
:100E9000926B480E916F860E906F4FDD03C05EF02F
:100EA00002C05DF001C05CF000C05BF07C6B7B6B4E
:100EB0007A6B796B5AC080F059C07FF058C07EF0D1
:100EC00057C07DF0E7DD01E22BE1D8925AC08FF0E8
:100ED00059C08EF058C08DF057C08CF0936B926B58
:100EE000916B7E0E906F11DE03C07CF002C07BF030
:100EF00001C07AF000C079F03DDF01C000F002C00F
:100F000001F0026A036A01AE02D00206030603C0C2
:100F10004EF002C04DF001C04CF000C04BF02AD0A2
:100F2000D8825AC08FF059C08EF058C08DF057C08B
:100F30008CF0936B926B916B7E0E906FE6DD03C02D
:100F40007CF002C07BF001C07AF000C079F012DFC3
:100F500001C000F002C001F0026A036A01AE02D0D3
:100F60000206030603C04EF002C04DF001C04CF073
:100F700000C04BF07C6B7B6B7A6B796B5EC080F052
:100F80005DC07FF05CC07EF05BC07DF083DD01E280
:100F90002BE1D8925EC08FF05DC08EF05CC08DF00A
:100FA0005BC08CF0936B926B916B7E0E906FADDD9E
:100FB00003C07CF002C07BF001C07AF000C079F081
:100FC000D9DE01C000F002C001F0026A036A01AE7E
:100FD00002D00206030603C052F002C051F001C065
:100FE00050F000C04FF02AD0D8825EC08FF05DC0B4
:100FF0008EF05CC08DF05BC08CF0936B926B916B4C
:101000007E0E906F82DD03C07CF002C07BF001C0D9
:101010007AF000C079F0AEDE01C000F002C001F04D
:10102000026A036A01AE02D00206030603C052F050
:1010300002C051F001C050F000C04FF04EC07CF033
:101040004DC07BF04CC07AF04BC079F0806B7F6B69
:101050007E6B020E7D6FAADE03C04EF002C04DF023
:1010600001C04CF000C04BF052C07CF051C07BF08E
:1010700050C07AF04FC079F0806B7F6B7E6B020EB0
:101080007D6F94DE03C052F002C051F001C050F0F9
:1010900000C04FF01200F294D76AE60ED66EF28AC4
:1010A000010E5F6E606F616F612D01D0FDD77BEF28
:1010B00008F03E6A020E3D6EAB0E3C6E980E3B6E23
:1010C000426A030E416E200E406EC80E3F6E98DEDF
:1010D0003EC046F03DC045F03CC044F03BC043F04C
:1010E00042C04AF041C049F040C048F03FC047F01C
:1010F000020E396ED0D74D0E99EC00F012008851D7
:10110000D8B471D0006E8C51D8B46DD0002604E3F1
:10111000810E002668E204D07F0E005E64E363E087
:1011200089C090F08D51901B898F8D8F8B518F03CB
:10113000F4CF92F08A518E03F4CF03F0F3CF91F005
:101140008F03F3509227F4509123000E03228B510A
:101150008E03F3509227F4509123000E026A03226B
:10116000022289518F03F3509127F4500322000E7D
:10117000022289518E03F3500326F4500222000EFE
:10118000016A01228B518D03F3509127F450032201
:10119000000E022201228A518D03F3500326F450DF
:1011A0000222000E012289518D03F3500226F450D1
:1011B0000122002A01BE05D09137033602360136DE
:1011C0000006000E91AF0AD0032A0222012201502C
:1011D00005E1025003E1035001E1002A90BF018EB6
:1011E00090AF019E04D0006A016A026A036A12008D
:1011F0008E0E006E8DC001F08CC002F0036A0152A9
:1012000009E102C001F0026A080E005E015202E12B
:10121000006A08D0D89001BE04D00236013600061C
:10122000F9D7019E1200806B7F6B7E6B7F0E7D6F06
:10123000846B836B826B816B858185938595876BCE
:1012400079517A1105E1006A016A026A036A06D1DE
:101250008751872B036A7925E96E7A510320EA6E5C
:10126000EFCF86F08653D8B4BED085A10FD086517B
:1012700020080CE0859186512B0803E18593A8D0C6
:1012800005D086512D0802E18583A2D085B107D013
:1012900086512E0804E185B502D0858599D085B1A7
:1012A00094D086512F08D8B090D086513908D8A054
:1012B0008CD0300E865F85A551D080C08BF07FC06A
:1012C0008AF07EC089F07DC088F08F6B8E6B200E17
:1012D0008D6F820E8C6F13DF03C080F002C07FF031
:1012E00001C07EF000C07DF08D6B86C08CF080DF89
:1012F00003C08BF002C08AF001C089F000C088F002
:1013000003C08FF002C08EF001C08DF000C08CF0E1
:1013100080C093F07FC092F07EC091F07DC090F0CD
:101320009DEC04F0D89284C08FF083C08EF082C010
:101330008DF081C08CF003C093F002C092F001C028
:1013400091F000C090F085EC05F003C084F002C07D
:1013500083F001C082F000C081F036D08B6B8A6BC5
:10136000200E896F820E886F84C08FF083C08EF04C
:1013700082C08DF081C08CF0C2DE03C08BF002C051
:101380008AF001C089F000C088F08D6B86C08CF0B7
:101390002FDFD8928BC08FF08AC08EF089C08DF07D
:1013A00088C08CF003C093F002C092F001C091F0AD
:1013B00000C090F085EC05F003C084F002C083F01B
:1013C00001C082F000C081F003D085B101D00BD004
:1013D0008751872B036A7925E96E7A510320EA6EDB
:1013E000EFCF86F03FD785A317D08B6B8A6B800E2B
:1013F000896F7F0E886F84C08FF083C08EF082C0AB
:101400008DF081C08CF07BDE03C084F002C083F0DD
:1014100001C082F000C081F07B517C1117E087533E
:101420000CE087077BC0E9FF7CC0EAFF8751792584
:10143000EF6E000E7A21EC6E09D07BC0E9FF7CC014
:10144000EAFF7AC0ECFFED5279C0EFFF81C000F0F7
:1014500082C001F083C002F084C003F01200635325
:10146000FEE0632D01D0FDD77A6B210E796F7C6B86
:101470007B6BD9DE03C056F002C055F001C054F0BA
:1014800000C053F012000900F6CF7AF0F7CF7BF0DE
:10149000F5CF86F0A7EC03F07AC0F6FF7BC0F7FF2C
:1014A000792FF1D712008651B608866F036A87C07C
:1014B0008AF0878FD890873388338933033202329A
:1014C00001320032862FF6D78AAF0BD0001E011EE4
:1014D000021E031E002AD8B4012AD8B4022AD8B4A6
:1014E000032A1200D8B203D0EA6A8E0EE96E006AAF
:1014F000016A026A036A8E6B8F6B906B916B8D51E0
:101500008C118B118A112CE0200E926FD8908637A7
:101510008737883789378E378F37903791378D5196
:10152000915D08E18C51905D05E18B518F5D02E189
:101530008A518E5D0FE38A518E5F8B51D8A08B3D0F
:101540008F5F8C51D8A08C3D905F8D51D8A08D3D80
:10155000915FD8800036013602360336922FD6D7F7
:101560008EC0EFFF8FC0ECFF90C0ECFF91C0ECFF8E
:101570001200E9507E6F7D51806F19E07CC08BF0C6
:101580007BC08AF07AC089F079C088F08F6B8E6B4F
:10159000200E8D6F820E8C6FB2DD03C07CF002C016
:1015A0007BF001C07AF000C079F0802FE7D77CC0D3
:1015B00089F07BC088F07AC087F079C086F073DF4D
:1015C00003C07CF002C07BF001C07AF000C079F06B
:1015D0007CAF0DD07E077E8B791F7A1F7B1F7C1F0F
:1015E000792BD8B47A2BD8B47B2BD8B47C2B3B0E78
:1015F000856F9A0E846FCA0E836F826B0A0E806F9E
:101600007D51D8B47E2BD882EA6A790EE96E7CC00F
:1016100089F07BC088F07AC087F079C086F085C0F9
:101620008DF084C08CF083C08BF082C08AF05ADFCA
:10163000015000520FE17D29805D0CE07E510CE0ED
:101640000F0B805D01E03BE27EBF39D07EBD04D050
:10165000200E30D0200E7E177EAB0DD07E9B7D51AC
:10166000D8A47E0700507E6F2D0E866FA7EC03F086
:101670007E51006E7E6B7D51805D0BE100507E6F70
:101680002E0E866FA7EC03F07E51006E200E7E17A3
:10169000000E300E7EAB0ED07E9B7D51D8A47E070F
:1016A00000507E6F2D0E866FA7EC03F07E51006E0A
:1016B0007E6B300E002600C086F0A7EC03F0D892B7
:1016C00085C089F084C088F083C087F082C086F02E
:1016D0008D6B8C6B8B6B0A0E8A6F04DF03C085F0F9
:1016E00002C084F001C083F000C082F0802F8BD74D
:1016F000120092968986050E3A6E9E90CF6ACE6A47
:101700009D8012000C0E866FA7EC03F0010E866F11
:10171000A7EC03F0C60EF66E000EF76EDEEC03F0DB
:10172000020E866FA7EC03F0D20EF66E000EF76E77
:10173000DEEC03F09292899296948D949290899027
:10174000959A8C9A948282A235D095948C84959A9D
:101750008C8A166AF2BE168EF29E010E9C6FA5EC64
:1017600000F016BEF28E166AF2BE168EF29EC80EFB
:101770009C6FB9EC00F016BEF28E959A8C9A166AA0
:10178000F2BE168EF29E010E9C6FA5EC00F016BE06
:10179000F28E166AF2BE168EF29EC80E9C6FB9ECDF
:1017A00000F016BEF28E010E7127000E7223732315
:1017B0007423C8D774C06CF073C06BF072C06AF049
:1017C00071C069F012009292899269516D5D656FE6
:1017D0006A516E59666F6B516F59676F6C517059D2
:1017E000686F68BF3ED0685307E1675305E16653F1
:1017F00003E16551000835E295948C84959A8C8AB2
:10180000166AF2BE168EF29E010E9C6FA5EC00F0D9
:1018100016BEF28E166AF2BE168EF29EC80E9C6F2F
:10182000B9EC00F016BEF28E959A8C9A166AF2BE4A
:10183000168EF29E010E9C6FA5EC00F016BEF28E85
:10184000166AF2BE168EF29EC80E9C6FB9EC00F0BE
:1018500016BEF28E010E655F000E665B675B685B0D
:10186000C0D768AF35D095948C94959A8C8A166AB7
:10187000F2BE168EF29E010E9C6FA5EC00F016BE15
:10188000F28E166AF2BE168EF29EC80E9C6FB9ECEE
:1018900000F016BEF28E959A8C9A166AF2BE168EDB
:1018A000F29E010E9C6FA5EC00F016BEF28E166A39
:1018B000F2BE168EF29EC80E9C6FB9EC00F016BEFA
:1018C000F28E010E6527000E662367236823C9D7B1
:1018D00070C06CF06FC06BF06EC06AF06DC069F0E4
:1018E00012000900F5520DE0F6CF79F0F7CF7AF04B
:1018F000F5509EA8FED7AD6E79C0F6FF7AC0F7FF0F
:10190000F0D710EF0FF096908D801EA2FED71EA28A
:101910006ED06153FEE0612D69D07A6B260E796F2F
:101920007C6B7B6B80DC03C089F002C088F001C057
:1019300087F000C086F0B7DD03C03EF002C03DF086
:1019400001C03CF000C03BF07A6B2D0E796F7C6BD0
:101950007B6B69DC03C089F002C088F001C087F0AE
:1019600000C086F0A0DD03C042F002C041F001C01B
:1019700040F000C03FF000EC07F03EC046F03DC034
:1019800045F03CC044F03BC043F042C04AF041C087
:1019900049F040C048F03FC047F0F294D76AE60EE5
:1019A000D66EF28A010E5F6E606F612D01D0FDD799
:1019B000900E69256D6F010E6A216E6F000E6B210E
:1019C0006F6F000E6C21706FFEDE900E695D6D6FA3
:1019D000010E6A596E6F000E6B596F6F000E6C59D5
:1019E000706FF1DE2A0E99EC00F095D790D79690A3
:1019F0008D9038EF0FF0F86AD09E078EB886E10E12
:101A0000AF6E040EB06EA60EAC6E900EAB6E1E8066
:101A1000C150C00B0F09C16E070EB46E176A186A69
:101A20001F6A040E796F166AF2BE168EF29EFA0EC7
:101A30009C6FA5EC00F016BEF28E792FF4D79D8A2C
:101A4000C70ED56EB50ECD6EF088F188C00EF212BD
:101A500048EF03F0376A636B626B466A456A446A13
:101A6000436A4A6A496A486A476A6C6B6B6B6A6B7D
:101A7000696B1E941E924E6A4D6A4C6A4B6A686B83
:101A8000676B666B656B526A516A506A4F6A746B1A
:101A9000736B726B716B3E6A3D6A3C6A3B6A426A69
:101AA000416A406A3F6A706B6F6B6E6B6D6B646B03
:101AB000616B5F6A606B566A556A546A536A5A6A08
:101AC000596A586A576A5E6A5D6A5C6A5B6A386A14
:101AD000346A356A366A96948D849290898092929F
:101AE000898296908D9092968996FA0EF66E030EE4
:101AF000F76EDEEC03F00A0EF66E040EF76EDEEC07
:101B000003F01A0EF66E040EF76EDEEC03F0300EE4
:101B1000F66E040EF76EDEEC03F06253FEE0626BCD
:101B2000EEEC03F025EC04F059EC08F098DC3E0EE6
:101B3000F66E040EF76E100E796FA5DCC90EE96E15
:101B400056C07CF055C07BF054C07AF053C079F099
:101B5000020E7D6F0EDD6D0E866FA7EC03F06D0E2D
:101B6000866FA7EC03F0580EF66E040EF76EDEECEF
:101B700003F06E0EF66E040EF76EDEEC03F0820ECE
:101B8000F66E040EF76EDEEC03F0968284B201D09E
:101B9000FCD7166AF2BE168EF29E0A0E9C6FA5EC5A
:101BA00000F016BEF28EA5DD968284A201D0FCD78D
:101BB000746B736B726B716BA5DD74C06CF073C06A
:101BC0006BF072C06AF071C069F0F40E715D6D6FF8
:101BD000010E72596E6F000E73596F6F000E7459BB
:101BE000706FF1DD25EC04F0410E99EC00F01EB4AD
:101BF00002D03852FCE01EA4A6D06153FEE0612D55
:101C0000A1D07A6B260E796F7C6B7B6B13EC09F09D
:101C100003C089F002C088F001C087F000C086F0E0
:101C200042DC03C03EF002C03DF001C03CF000C009
:101C30003BF07A6B2D0E796F7C6B7B6B13EC09F0AC
:101C400003C089F002C088F001C087F000C086F0B0
:101C50002ADC03C042F002C041F001C040F000C0E5
:101C60003FF000EC07F03EC046F03DC045F03CC000
:101C700044F03BC043F042C04AF041C049F040C08C
:101C800048F03FC047F0F294D76AE60ED66EF28A6B
:101C9000010E5F6E606F612D01D0FDD7900EF66E64
:101CA000040EF76EDEEC03F0A40EF66E040EF76E73
:101CB000DEEC03F0BA0EF66E040EF76EDEEC03F007
:101CC000CE0EF66E040EF76EDEEC03F0F292F288A2
:101CD000F18C968284B203D0385201E1FAD7166AA9
:101CE000F2BE168EF29E0A0E9C6FA5EC00F016BE98
:101CF000F28EFFDC968284A203D0385201E1FAD73B
:101D0000968284B21ED038521CE16CC078F06BC051
:101D100077F06AC076F069C075F070C06CF06FC083
:101D20006BF06EC06AF06DC069F078C070F077C07B
:101D30006FF076C06EF075C06DF045DD410E99EC28
:101D400000F05DD758D7D5DCF2983752D8A492D09E
:101D500038526EE1EEEC03F025EC04F059EC08F09B
:101D60002FEC0AF0E20EF66E040EF76EDEEC03F0D6
:101D7000F60EF66E040EF76E0A0E796F43EC0AF05B
:101D8000C90EE96E56C07CF055C07BF054C07AF0A5
:101D900053C079F0020E7D6FB9EC0AF0060EF66EB4
:101DA000050EF76E040E796F43EC0AF00C0EF66E1A
:101DB000050EF76EDEEC03F0968284B201D0FCD7FC
:101DC000166AF2BE168EF29E0A0E9C6FA5EC00F00B
:101DD00016BEF28E8EDC968284A201D0FCD7746B84
:101DE000736B726B716B8EDC74C06CF073C06BF0D4
:101DF00072C06AF071C069F0F40E715D6D6F010E12
:101E000072596E6F000E73596F6F000E7459706FB8
:101E1000DADC25EC04F01C0EF66E050EF76E61D5CB
:101E20000D0E9EA8FED7AD6E0A0E9EA8FED7AD6E13
:101E300025EC04F0020E396E200EF66E050EF76EDC
:101E4000DEEC03F0340EF66E050EF76EDEEC03F0FA
:101E50004C0EF66E050EF76EDEEC03F06253FEE0FC
:101E60005C0EF66E050EF76EDEEC03F0626B4BD582
:081E7000386A6BD7EFD50300BF
:020000040030CA
:0E00000024CE3E1E0087A1000FC00FE00F406F
:00000001FF
;PIC18F4550
;CRC=7625  CREATED="08-oct.-18 00:05"
