:04000000F7EF0CF01A
:08000800046ED8CF05F0E0CF33
:1000100006F00001E9CF0CF0EACF07F0E1CF08F0DD
:10002000E2CF09F0D9CF0AF0DACF0BF0F3CF12F01C
:10003000F4CF13F0FACF14F000C00EF001C00FF0AF
:1000400002C010F003C011F0F2AA2AEF00F0F2B4DF
:1000500007EF01F09DA030EF00F09EB06EEF01F0D1
:10006000F2A836EF00F0F2B2C8EF00F0F0A83CEFD3
:1000700000F0F0B29CEF00F09DAA42EF00F09EBAB3
:100080007AEF01F00EC000F00FC001F010C002F0D6
:1000900011C003F00CC0E9FF07C0EAFF078E08C0DB
:1000A000E1FF09C0E2FF0AC0D9FF0BC0DAFF12C0AE
:1000B000F3FF13C0F4FF14C0FAFF045006C0E0FFC2
:1000C00005C0D8FF1000416A757374616E646F20BB
:1000D0005A0050726F66756E64696461642064656D
:1000E000206D656368610000416A757374616E64B8
:1000F0006F20656A65205A004573706572652070CF
:100100006F72206661766F720000416A7573746168
:100110006E646F20656A657320582D590000457321
:100120007065726520706F72206661766F72000074
:100130009EA8FED7AD6E1200460EFADF1E94010E89
:10014000376EF09242EF00F0EA6A9B0EE96EEF50D4
:100150000EE00F0E016E006A002EFED7012EFBD7B7
:100160008F0E006E002EFED70000EF2EF2D7120089
:10017000010E9B5F0CE3EA6A9B0EE96EEF5007E00D
:10018000020E006E002EFED700D0EF2EF9D712001F
:10019000959A8C9A928480B41AD09292899295946E
:1001A0008C94010E6C5F000E6D5B6E5B6F5B959ABD
:1001B0008C8A010E9B6FC8DFC80E9B6FD9DF959AA2
:1001C0008C9A010E9B6FC0DFC80E9B6FD1DF9284AB
:1001D00080A41AD09292899295948C84010E6C27F7
:1001E000000E6D236E236F23959A8C8A010E9B6FF0
:1001F000ABDFC80E9B6FBCDF959A8C9A010E9B6F8C
:10020000A3DFC80E9B6FB4DFF29242EF00F0010E45
:10021000385E3852D8A45CD0020E386E4A5207E1DC
:100220004B5205E14C5203E14D5201E15E6A4DBE75
:1002300013D04D5207E14C5205E14B5203E14A50B5
:1002400000080AE295908C9095968C76010E4A5E95
:10025000000E4B5A4C5A4D5A4DAE0AD095908C8098
:1002600095968C76010E4A26000E4B224C224D228A
:100270004E5207E14F5205E1505203E1515201E164
:100280005F6A51BE13D0515207E1505205E14F52FF
:1002900003E14E5000080AE295928C8295988C7882
:1002A000010E4E5E000E4F5A505A515A51AE0AD0AE
:1002B00095928C9295988C78010E4E26000E4F22C6
:1002C000502251225E5204E15F5202E1606BF29AC9
:1002D000D76AE60ED66EF29442EF00F0010E395E58
:1002E000395203E1929689969D90CF6ACE6A9E908C
:1002F00042EF00F09EAAFED7AECF20F02050460875
:100300000BE11EA209D0000E1EB2010E010F1E92BB
:10031000E8B01E82010E366E2050410807E1000E43
:100320001EB4010E010F1E94E8B01E842050500828
:1003300007E1000E1EB2010E010F1E92E8B01E82F0
:1003400020502A0802E1010E616F20504D0803E1A0
:10035000010E626F356A622D12D020504D080FE0F9
:10036000036A3550210FE96E000E0320EA6E20C0AB
:10037000EFFF010E35263550040801E1626B205075
:10038000580803E1010E5E6E336A2050590803E1FC
:10039000010E5F6E346A5E2C12D0205058080FE0B8
:1003A000036A3350250FE96E000E0320EA6E20C069
:1003B000EFFF010E33263350070801E15E6A5F2C20
:1003C00014D02050590811E0036A34502C0FE96E04
:1003D000000E0320EA6E20C0EFFF010E34263450D9
:1003E000070803E15F6A010E606F9E9A42EF00F01A
:1003F0000C504F52204641564F522050554C5345B9
:10040000202A20454E0002454C205445434C41448F
:100410004F204445204C410003434F4D505554411B
:10042000444F5241205920455350455245000455F0
:100430004E204D4F4D454E544F2E00000C01436F42
:100440006C6F717565206D65636861202530312E94
:1004500032666D6D00000250726573696F6E6520C3
:10046000656E7465722070617261000003636F6D68
:10047000656E7A617220656C20616A7573746500BF
:10048000046465206C6120706C6163612E000C0156
:1004900047697265207061726120737562697220AC
:1004A0006F000262616A6172206D656368612E503F
:1004B000726573696F6E650003656E746572206E98
:1004C0007565766F2070756E746F2E0004426F74C0
:1004D0006F6E20726F6A6F2073616C69722E0000FC
:1004E0000C01506F72206661766F7220636F6C6FC3
:1004F00071756500026D6563686120646520253053
:10050000312E32666D6D207900000370726573695B
:100510006F6E6520656E746572004F4B00000C01B4
:10052000506572666F7261646F7261204C6973749A
:1005300061000270617261206F706572617220707B
:10054000756C7365202A0000037061726120636F0F
:100550006D656E7A617200004F4B00000C015045D2
:1005600052464F52414E444F0000080E016E020E9B
:10057000006E002EFED78A9A939A020E006E002E0D
:10058000FED78B378A98D8B09388D8A09398938A4F
:1005900081AAFED7012EEBD7020E006E002EFED7E9
:1005A0008A9A939A00009388020E006E002EFED75E
:1005B000020E006E002EFED7938A81AAFED7016A32
:1005C000020E006E002EFED781B801808A9A939A9F
:1005D0008A98939812009388020E006E002EFED720
:1005E000938A020E006E002EFED78A989398020E10
:1005F000006E002EFED78A9A939A030E006E002E8C
:10060000FED700D07E0E8B6FB0DF030E006E002E83
:10061000FED700D08AC08BF0A8DF030E006E002E3C
:10062000FED700D093980000938A81AAFED7020ECD
:10063000006E002EFED700D000009388020E006EE0
:10064000002EFED7030E006E002EFED700D0120043
:100650001EA005D0895104090809896F01D0898538
:1006600089C08AF0B8DF040E895F89C08AF0B3DFE1
:100670001200896BEDDF100E896FEADF166AF2BE99
:10068000168EF29E020E9B6F5FDD16BEF28E12007A
:10069000166AF2BE168EF29E0A0E9B6F55DD16BECE
:1006A000F28E896BD5DF100E896FD2DF896BD0DFB8
:1006B000896BCEDF100E896FCBDF300E896FC8DFFC
:1006C000300E896FC5DF300E896FC2DF200E896F53
:1006D000BFDF200E896FBCDF800E896FB9DF896BA9
:1006E000B7DFC00E896FB4DF896BB2DF600E896F30
:1006F000AFDFBFDF26EF0DF08851010A07E0030AE4
:1007000008E0010A09E0070A0AE00CD0800E1D6E1D
:100710000BD0C00E1D6E08D0940E1D6E05D0D40EE9
:100720001D6E02D0800E1D6E010E875D1D261D50B0
:10073000F00B1F6E1FC089F08BDF1D500F0B1F6E5B
:100740001F3AF00E1F161FC089F082DF120085517C
:100750000C0A09E00D0A09E0030A0CE0010A10E0A6
:10076000070A14E019D085DF28D0010E876F886F43
:10077000C3DF23D0010E876F020E886FBDDF1DD04F
:10078000010E876F030E886FB7DF17D0010E876FDA
:10079000040E886FB1DF11D08551F00B866F868112
:1007A00086C089F055DF85510F0B866F863BF00EB2
:1007B0008617868186C089F04BDF12000900F5524A
:1007C0000CE0F6CF78F0F7CF79F0F5CF85F0BFDF0A
:1007D00078C0F6FF79C0F7FFF1D712000C0E856FD5
:1007E000B6DF010E856FB3DFE80EF66E000EF76E12
:1007F000E5DF020E856FABDFF80EF66E000EF76ECA
:10080000DDDF92928992948082B017D095948C9477
:10081000959A8C7A166AF2BE168EF29E010E9B6F26
:1008200093DC16BEF28E166AF2BE168EF29EC80ECB
:100830009B6F9EDC16BEF28EE6D76B6B6A6B696BA4
:10084000686B12000C0E856F82DF010E856F7FDFF3
:100850000A0EF66E010EF76EB1DF020E856F77DFBE
:100860001E0EF66E010EF76EA9DF96948D9492908F
:100870008990958C83AC03D0958E83BE21D0958CC6
:1008800083BC04D095908C8095968C76958E83BE93
:1008900004D095928C9295988C78166AF2BE168E3A
:1008A000F29E010E9B6F50DC16BEF28E166AF2BEEF
:1008B000168EF29EC80E9B6F5BDC16BEF28ED9D7E9
:1008C00095968C9695988C98959A8C9A456A446AD8
:1008D000436A426A496A486A476A466A1200B60E23
:1008E000006E036A026A016A80917FAF0CD080813A
:1008F0007C1F7D1F7E1F7F1F7C2B05E17D2B03E16D
:100900007E2BD8B47F2B7C517D117E117F1102E1AB
:10091000006A0FD0D89001BE09D07C377D377E3772
:100920007F37033602360136002EF4D7019E80B1A0
:10093000018E12008B51D8B4A5D0976F8F51D8B4C7
:10094000A1D0975F05E37F0E9727D8B09BD006D044
:10095000810E975FD8A096D0D8B494D097C000F0FD
:10096000016A026A036A966B8CC095F0958F8DC000
:1009700094F08EC093F0190E976F9251935F0DE231
:10098000010E945F0AE2955F08E2965F06E2962BFD
:10099000952B942B9251932728D09151945F12E27A
:1009A000010E955F0FE2965F0DE2962B952B91510C
:1009B00094279251932719E3942B17E1952B15E176
:1009C000962B13D090518009955F0EE2010E965F31
:1009D0000BE2962B90518009952791519427E9E3DA
:1009E000952BE7E1962BE5D70380972F01D00BD00D
:1009F000D8909337943795379637D8900336023688
:100A000001369837BAD798A106D0D8900132023271
:100A10000332983302D0000635E098BF1ED0D8903C
:100A200093379437953796379251935F07E2010ECB
:100A3000945F04E2955F02E2965F1AE39151945F3E
:100A400005E2010E955F02E2965F12E39051800984
:100A5000955F03E2010E965F0BE3032A09E1022A88
:100A600007E1012A05E1002A0DE0013202320332DA
:100A70008CC097F09051971B97AF02D0018E06D093
:100A8000019E04D0006A016A026A036A120079C0FA
:100A900080F07D51801B80AF05D0D894D89079BF6D
:100AA000D8802FD079C080F07CC081F07851815FF0
:100AB00006E080AF26D0D850010AD86E22D07DC083
:100AC00081F07951815F06E080AF1BD0D850010AD8
:100AD000D86E17D07EC081F07A51815F06E080AF7A
:100AE00010D0D850010AD86E0CD07FC081F07B5155
:100AF000815F06E080AF05D0D850010AD86E01D0E2
:100B0000D8901200800ED8B2901B956B966B8CC05B
:100B100094F09051941B8B51D8B4DCD0936F006E3D
:100B20008F51D8B4E0D0935FD8B481D03DE390C06A
:100B300099F0998F91C098F092C097F0966BD890E9
:100B40009933983397339633932FF8D794AF03D0D4
:100B50009581DDD0959193919589EA6A8E0EE96E23
:100B6000E9D0959994BF0AD093A113D099339833C3
:100B700097339633002AD8B4C5D00BD099BF0CD088
:100B8000D89096379737983799370006D8B4BAD0A7
:100B9000F5D7958D6BD0959D8CC094F08CAF02D01D
:100BA000998FA9D0999FA7D08FC093F08FC000F0E4
:100BB0008B51935F8CC099F0998F8DC098F08EC047
:100BC00097F0966BD8909933983397339633932F49
:100BD000F8D794AF03D095839AD095939391958B42
:100BE000EA6A920EE96EA6D0959B94BF0AD093A1B3
:100BF00013D09933983397339633002AD8B482D0E0
:100C00000BD099BF0CD0D890963797379837993733
:100C10000006D8B477D0F5D7958F28D0959F90C08F
:100C200094F090AF02D0998F66D0999F64D090C015
:100C300099F0998F91C098F092C097F094AF04D03A
:100C4000999F958564D09595966B9391EA6A8E0EDF
:100C5000E96E70D094BF1CD08CC094F093A106D0E4
:100C60009933983397339633002A4CE096AF0BD0E4
:100C7000972B09E1982B07E1992B05E199339833DC
:100C80009733002A3FE095BD86D795BFC7D71CD0C4
:100C9000800E991B99AF04D03AD090C094F00AD03E
:100CA0008CC094F0995306E1985304E1975302E104
:100CB000006A21D099BF08D0D890963797379837D7
:100CC0009937002EF7D71ED094AF02D0998F13D04A
:100CD000999F11D08FC000F090C099F091C098F00A
:100CE00092C097F008D08BC000F08CC099F08DC0F6
:100CF00098F08EC097F099C001F098C002F097C0AC
:100D000003F034D0006A016A026A036A2FD0966B3E
:100D1000971F981F991F961F962B05E1972B03E1AC
:100D2000982B01E1992B95B115D795B356D795B569
:100D30008AD7B3D7EF50972705E3982B03E1992B78
:100D4000D8B49381ED52EF50982703E3992BD8B490
:100D50009381ED52EF50EFBE01D0800A9927D8B0B1
:100D6000938195B9FED695BB3FD774D712008E0EEE
:100D7000006E7851005E79C002F07AC001F0028EF8
:100D8000005209E0D890025202E1015204E002321E
:100D90000132002EF7D779AF05D0011E021E012ABD
:100DA000D8B4022A1200806B816B010E826FDA6A5E
:100DB000D96A856B780E846FEA6A7C0EE96E85C00D
:100DC000E2FF84C0E1FF82C083F0D890E550EE02DC
:100DD000F3508023F4508123832FF7D780C0DEFFA8
:100DE00081C080F0816BD8B0812B842BD8B4852B47
:100DF000822B82510508E0E1120042503A5C786F84
:100E000043503B58796F44503C587A6F45503D5899
:100E10007B6F7F6F7AC07EF079C07DF078C07CF008
:100E20005EDD03C08EF002C08DF001C08CF000C00A
:100E30008BF0926B916B480E906F860E8F6F7ADD00
:100E400003C059F002C058F001C057F000C056F07E
:100E500046503E5C786F47503F58796F4850405835
:100E60007A6F495041587B6F7F6F7AC07EF079C0AE
:100E70007DF078C07CF033DD03C08EF002C08DF0D1
:100E800001C08CF000C08BF0926B916B480E906F9C
:100E9000860E8F6F4FDD03C05DF002C05CF001C0B5
:100EA0005BF000C05AF07B6B7A6B796B786B59C042
:100EB0007FF058C07EF057C07DF056C07CF0E7DD73
:100EC00001E22BE1D89259C08EF058C08DF057C086
:100ED0008CF056C08BF0926B916B906B7E0E8F6F87
:100EE00011DE03C07BF002C07AF001C079F000C0CF
:100EF00078F03DDF01C000F002C001F0026A036A31
:100F000001AE02D00206030603C04DF002C04CF051
:100F100001C04BF000C04AF02AD0D88259C08EF0F0
:100F200058C08DF057C08CF056C08BF0926B916B0F
:100F3000906B7E0E8F6FE6DD03C07BF002C07AF00F
:100F400001C079F000C078F012DF01C000F002C0EB
:100F500001F0026A036A01AE02D00206030603C072
:100F60004DF002C04CF001C04BF000C04AF07B6B6A
:100F70007A6B796B786B5DC07FF05CC07EF05BC094
:100F80007DF05AC07CF083DD01E22BE1D8925DC098
:100F90008EF05CC08DF05BC08CF05AC08BF0926B11
:100FA000916B906B7E0E8F6FADDD03C07BF002C046
:100FB0007AF001C079F000C078F0D9DE01C000F00D
:100FC00002C001F0026A036A01AE02D00206030603
:100FD00003C051F002C050F001C04FF000C04EF00D
:100FE0002AD0D8825DC08EF05CC08DF05BC08CF0E2
:100FF0005AC08BF0926B916B906B7E0E8F6F82DD7F
:1010000003C07BF002C07AF001C079F000C078F034
:10101000AEDE01C000F002C001F0026A036A01AE58
:1010200002D00206030603C051F002C050F001C016
:101030004FF000C04EF04DC07BF04CC07AF04BC07A
:1010400079F04AC078F07F6B7E6B7D6B020E7C6F0F
:10105000AADE03C04DF002C04CF001C04BF000C04E
:101060004AF051C07BF050C07AF04FC079F04EC0CA
:1010700078F07F6B7E6B7D6B020E7C6F94DE03C01D
:1010800051F002C050F001C04FF000C04EF012000D
:10109000F294D76AE60ED66EF28A010E5E6E5F6E2D
:1010A000606F602D01D0FDD778EF08F03D6A020E29
:1010B0003C6EAB0E3B6E980E3A6E416A030E406E6C
:1010C000200E3F6EC80E3E6E98DE3DC045F03CC01F
:1010D00044F03BC043F03AC042F041C049F040C048
:1010E00048F03FC047F03EC046F0020E386ED0D701
:1010F0004D0E98EC00F012008751D8B471D0006EFC
:101100008B51D8B46DD0002604E3810E002668E22E
:1011100004D07F0E005E64E363E088C08FF08C51E2
:101120008F1B888F8C8F8A518E03F4CF91F0895159
:101130008D03F4CF03F0F3CF90F08E03F35091279B
:10114000F4509023000E03228A518D03F35091270F
:10115000F4509023000E026A0322022288518E036B
:10116000F3509027F4500322000E022288518D0381
:10117000F3500326F4500222000E016A01228A5124
:101180008C03F3509027F4500322000E0222012218
:1011900089518C03F3500326F4500222000E0122E1
:1011A00088518C03F3500226F4500122002A01BE1C
:1011B00005D090370336023601360006000E90AF98
:1011C0000AD0032A02220122015005E1025003E164
:1011D000035001E1002A8FBF018E8FAF019E04D022
:1011E000006A016A026A036A12008E0E006E8CC0E9
:1011F00001F08BC002F0036A015209E102C001F064
:10120000026A080E005E015202E1006A08D0D8901E
:1012100001BE04D0023601360006F9D7019E120045
:101220007F6B7E6B7D6B7F0E7C6F836B826B816BC4
:10123000806B848184938495866B7851791105E164
:10124000006A016A026A036A06D18651862B036A24
:101250007825E96E79510320EA6EEFCF85F085534A
:10126000D8B4BED084A10FD0855120080CE0849161
:1012700085512B0803E18493A8D005D085512D0812
:1012800002E18483A2D084B107D085512E0804E105
:1012900084B502D0848599D084B194D085512F082B
:1012A000D8B090D085513908D8A08CD0300E855F49
:1012B00084A551D07FC08AF07EC089F07DC088F0BF
:1012C0007CC087F08E6B8D6B200E8C6F820E8B6FC7
:1012D00013DF03C07FF002C07EF001C07DF000C0CC
:1012E0007CF08C6B85C08BF080DF03C08AF002C07D
:1012F00089F001C088F000C087F003C08EF002C002
:101300008DF001C08CF000C08BF07FC092F07EC0E9
:1013100091F07DC090F07CC08FF09AEC04F0D892F0
:1013200083C08EF082C08DF081C08CF080C08BF0C5
:1013300003C092F002C091F001C090F000C08FF0A5
:1013400082EC05F003C083F002C082F001C081F09E
:1013500000C080F036D08A6B896B200E886F820EB9
:10136000876F83C08EF082C08DF081C08CF080C00A
:101370008BF0C2DE03C08AF002C089F001C088F0A1
:1013800000C087F08C6B85C08BF02FDFD8928AC0AD
:101390008EF089C08DF088C08CF087C08BF003C0C0
:1013A00092F002C091F001C090F000C08FF082EC8A
:1013B00005F003C083F002C082F001C081F000C0DC
:1013C00080F003D084B101D00BD08651862B036A04
:1013D0007825E96E79510320EA6EEFCF85F03FD78B
:1013E00084A317D08A6B896B800E886F7F0E876FFE
:1013F00083C08EF082C08DF081C08CF080C08BF0F5
:101400007BDE03C083F002C082F001C081F000C027
:1014100080F07A517B1117E086530CE086077AC082
:10142000E9FF7BC0EAFF86517825EF6E000E792137
:10143000EC6E09D07AC0E9FF7BC0EAFF79C0ECFF0F
:10144000ED5278C0EFFF80C000F081C001F082C093
:1014500002F083C003F012006253FEE0622D01D05F
:10146000FDD7796B210E786F7B6B7A6BD9DE03C069
:1014700055F002C054F001C053F000C052F0120009
:101480000900F6CF79F0F7CF7AF0F5CF85F0A7EC29
:1014900003F079C0F6FF7AC0F7FF782FF1D712007A
:1014A0008551B608856F036A86C089F0868FD8900B
:1014B0008633873388330332023201320032852F7C
:1014C000F6D789AF0BD0001E011E021E031E002A94
:1014D000D8B4012AD8B4022AD8B4032A1200D8B248
:1014E00003D0EA6A8D0EE96E006A016A026A036A35
:1014F0008D6B8E6B8F6B906B8C518B118A11891158
:101500002CE0200E916FD890853786378737883743
:101510008D378E378F3790378C51905D08E18B5126
:101520008F5D05E18A518E5D02E189518D5D0FE38A
:1015300089518D5F8A51D8A08A3D8E5F8B51D8A08A
:101540008B3D8F5F8C51D8A08C3D905FD88000364A
:10155000013602360336912FD6D78DC0EFFF8EC0ED
:10156000ECFF8FC0ECFF90C0ECFF1200E9507D6FE4
:101570007C517F6F19E07BC08AF07AC089F079C016
:1015800088F078C087F08E6B8D6B200E8C6F820E8A
:101590008B6FB2DD03C07BF002C07AF001C079F03E
:1015A00000C078F07F2FE7D77BC088F07AC087F043
:1015B00079C086F078C085F073DF03C07BF002C08D
:1015C0007AF001C079F000C078F07BAF0DD07D07D4
:1015D0007D8B781F791F7A1F7B1F782BD8B4792BCE
:1015E000D8B47A2BD8B47B2B3B0E846F9A0E836FC2
:1015F000CA0E826F816B0A0E7F6F7C51D8B47D2B2F
:10160000D882EA6A780EE96E7BC088F07AC087F0EB
:1016100079C086F078C085F084C08CF083C08BF0F0
:1016200082C08AF081C089F05ADF015000520FE178
:101630007C297F5D0CE07D510CE00F0B7F5D01E0AC
:101640003BE27DBF39D07DBD04D0200E30D0200ECE
:101650007D177DAB0DD07D9B7C51D8A47D070050BC
:101660007D6F2D0E856FA7EC03F07D51006E7D6BB5
:101670007C517F5D0BE100507D6F2E0E856FA7ECD6
:1016800003F07D51006E200E7D17000E300E7DABF5
:101690000ED07D9B7C51D8A47D0700507D6F2D0E10
:1016A000856FA7EC03F07D51006E7D6B300E002638
:1016B00000C085F0A7EC03F0D89284C088F083C006
:1016C00087F082C086F081C085F08C6B8B6B8A6B53
:1016D0000A0E896F04DF03C084F002C083F001C0EA
:1016E00082F000C081F07F2F8BD7120092968986FE
:1016F000050E396E9E90CF6ACE6A9D8012000C0E48
:10170000856FA7EC03F0010E856FA7EC03F0C60E02
:10171000F66E000EF76EDEEC03F0020E856FA7EC9E
:1017200003F0D20EF66E000EF76EDEEC03F092922E
:10173000899296948D9492908990959A8C9A94829D
:1017400082A235D095948C84959A8C8A166AF2BEC2
:10175000168EF29E010E9B6FA4EC00F016BEF28E68
:10176000166AF2BE168EF29EC80E9B6FB8EC00F0A1
:1017700016BEF28E959A8C9A166AF2BE168EF29E5C
:10178000010E9B6FA4EC00F016BEF28E166AF2BE3C
:10179000168EF29EC80E9B6FB8EC00F016BEF28E4D
:1017A000010E7027000E712372237323C8D773C0F4
:1017B0006BF072C06AF071C069F070C068F012001E
:1017C0009292899268516C5D646F69516D59656F31
:1017D0006A516E59666F6B516F59676F67BF3ED024
:1017E000675307E1665305E1655303E1645100085F
:1017F00035E295948C84959A8C8A166AF2BE168E80
:10180000F29E010E9B6FA4EC00F016BEF28E166ADB
:10181000F2BE168EF29EC80E9B6FB8EC00F016BE9C
:10182000F28E959A8C9A166AF2BE168EF29E010E70
:101830009B6FA4EC00F016BEF28E166AF2BE168EF6
:10184000F29EC80E9B6FB8EC00F016BEF28E010E31
:10185000645F000E655B665B675BC0D767AF35D0C2
:1018600095948C94959A8C8A166AF2BE168EF29E86
:10187000010E9B6FA4EC00F016BEF28E166AF2BE4B
:10188000168EF29EC80E9B6FB8EC00F016BEF28E5C
:10189000959A8C9A166AF2BE168EF29E010E9B6F76
:1018A000A4EC00F016BEF28E166AF2BE168EF29E00
:1018B000C80E9B6FB8EC00F016BEF28E010E6427C6
:1018C000000E652366236723C9D76FC06BF06EC017
:1018D0006AF06DC069F06CC068F012000900F55242
:1018E0000DE0F6CF78F0F7CF79F0F5509EA8FED74F
:1018F000AD6E78C0F6FF79C0F7FFF0D71200969072
:101900008D801EA2FED71EA26ED06053FEE0602D19
:1019100069D0796B250E786F7B6B7A6B81DC03C0A5
:1019200088F002C087F001C086F000C085F0B8DD05
:1019300003C03DF002C03CF001C03BF000C03AF0F3
:10194000796B2C0E786F7B6B7A6B6ADC03C088F046
:1019500002C087F001C086F000C085F0A1DD03C0A1
:1019600041F002C040F001C03FF000C03EF0FDEC8D
:1019700006F03DC045F03CC044F03BC043F03AC0E7
:1019800042F041C049F040C048F03FC047F03EC07F
:1019900046F0F294D76AE60ED66EF28A010E5E6EBB
:1019A0005F6E602D01D0FDD7900E68256C6F010E23
:1019B00069216D6F000E6A216E6F000E6B216F6FD3
:1019C000FFDE900E685D6C6F010E69596D6F000E41
:1019D0006A596E6F000E6B596F6FF2DE2A0E98EC2B
:1019E00000F095D790D796908D9041EF0FF0F86A60
:1019F000D09E078EB886E10EAF6E040EB06EA60EB6
:101A0000AC6E900EAB6E1E80C150C00B0F09C16E44
:101A1000070EB46E176A186A1F6A040E786F166A8A
:101A2000F2BE168EF29EFA0E9B6FA4EC00F016BE6C
:101A3000F28E782FF4D79D8AC70ED56EB50ECD6E77
:101A4000F088F188C00EF21248EF03F0366A626B3C
:101A5000616B456A446A436A426A496A486A476AEE
:101A6000466A6B6B6A6B696B686B1E941E924D6A5B
:101A70004C6A4B6A4A6A676B666B656B646B516A4A
:101A8000506A4F6A4E6A736B726B716B706B3D6A12
:101A90003C6A3B6A3A6A416A406A3F6A3E6A6F6BD7
:101AA0006E6B6D6B6C6B636B606B5E6A5F6A556AC5
:101AB000546A536A526A596A586A576A566A5D6A22
:101AC0005C6A5B6A5A6A376A336A346A356A969422
:101AD0008D84929089809292898296908D90929630
:101AE0008996F00EF66E030EF76EDEEC03F0060E2E
:101AF000F66E040EF76EDEEC03F0180EF66E040EB2
:101B0000F76EDEEC03F02E0EF66E040EF76EDEECD2
:101B100003F06153FEE0616BEEEC03F022EC04F0A5
:101B200056EC08F099DC3C0EF66E040EF76E100EC3
:101B3000786FA6DCC90EE96E55C07BF054C07AF010
:101B400053C079F052C078F0020E7C6F0FDD6D0E3D
:101B5000856FA7EC03F06D0E856FA7EC03F0560EB2
:101B6000F66E040EF76EDEEC03F06C0EF66E040EED
:101B7000F76EDEEC03F0800EF66E040EF76EDEEC10
:101B800003F0968284B201D0FCD7166AF2BE168E9C
:101B9000F29E0A0E9B6FA4EC00F016BEF28EA6DD3C
:101BA000968284A201D0FCD7736B726B716B706BE1
:101BB000A6DD73C06BF072C06AF071C069F070C0CE
:101BC00068F0F40E705D6C6F010E71596D6F000E50
:101BD00072596E6F000E73596F6FF2DD22EC04F0D4
:101BE000410E98EC00F01EB402D03752FCE01EA467
:101BF000A6D06053FEE0602DA1D0796B250E786FE2
:101C00007B6B7A6B10EC09F003C088F002C087F0A0
:101C100001C086F000C085F043DC03C03DF002C087
:101C20003CF001C03BF000C03AF0796B2C0E786FAD
:101C30007B6B7A6B10EC09F003C088F002C087F070
:101C400001C086F000C085F02BDC03C041F002C06B
:101C500040F001C03FF000C03EF0FDEC06F03DC09A
:101C600045F03CC044F03BC043F03AC042F041C0B4
:101C700049F040C048F03FC047F03EC046F0F29403
:101C8000D76AE60ED66EF28A010E5E6E5F6E602D2A
:101C900001D0FDD78E0EF66E040EF76EDEEC03F06B
:101CA000A20EF66E040EF76EDEEC03F0B80EF66EC2
:101CB000040EF76EDEEC03F0CC0EF66E040EF76E3B
:101CC000DEEC03F0F292F288F18C968284B203D0BB
:101CD000375201E1FAD7166AF2BE168EF29E0A0E4C
:101CE0009B6FA4EC00F016BEF28E00DD968284A2FB
:101CF00003D0375201E1FAD7968284B21ED0375210
:101D00001CE16BC077F06AC076F069C075F068C0FE
:101D100074F06FC06BF06EC06AF06DC069F06CC09B
:101D200068F077C06FF076C06EF075C06DF074C06B
:101D30006CF046DD410E98EC00F05DD758D7D6DC4C
:101D4000F2983652D8A49FD037526EE1EEEC03F0F1
:101D500022EC04F056EC08F02CEC0AF0E00EF66EE3
:101D6000040EF76EDEEC03F0F40EF66E040EF76E62
:101D70000A0E786F40EC0AF0C90EE96E55C07BF090
:101D800054C07AF053C079F052C078F0020E7C6FE4
:101D9000B6EC0AF0040EF66E050EF76E040E786FC0
:101DA00040EC0AF00A0EF66E050EF76EDEEC03F05C
:101DB000968284B201D0FCD7166AF2BE168EF29ECD
:101DC0000A0E9B6FA4EC00F016BEF28E8FDC96829A
:101DD00084A201D0FCD7736B726B716B706B8FDC5C
:101DE00073C06BF072C06AF071C069F070C068F0C7
:101DF000F40E705D6C6F010E71596D6F000E7259AB
:101E00006E6F000E73596F6FDBDC22EC04F01A0E5C
:101E1000F66E050EF76E62DD0D0E9EA8FED7AD6E56
:101E20000A0E9EA8FED7AD6E22EC04F0020E386EAC
:101E30001E0EF66E050EF76EDEEC03F0320EF66E39
:101E4000050EF76EDEEC03F0480EF66E050EF76E2B
:101E5000DEEC03F0580EF66E050EF76E3FDD0D0E4C
:101E60009EA8FED7AD6E0A0E9EA8FED7AD6E61533A
:101E7000FEE05C0EF66E050EF76EDEEC03F0616BB5
:0A1E80003ED5376A5ED7E2D50300B5
:020000040030CA
:0E00000024CE3E1E0087A1000FC00FE00F406F
:00000001FF
;PIC18F4550
;CRC=2FD9  CREATED="01-oct-18 14:34"
